:100000000C944C000C9414260C9414260C94142676
:100010000C9414260C9414260C9414260C94142678
:100020000C9414260C9414260C9414260C94142668
:100030000C9414260C9414260C9460220C94142610
:100040000C9414260C9414260C9471120C941426FF
:100050000C9414260C9414260C9414260C94142638
:100060000C9414260C94142601000214800214022D
:1000700032004C36023202428002420260004C548E
:100080000260026480026402650001510265026739
:10009000004C720267026C8011241FBECFEFD8E0C3
:1000A000DEBFCDBFE8E6F0E040E017C0B591A59116
:1000B00035912591059107FD0CC095918591EF0132
:1000C000F92FE82F05900D92A217B307D9F7FE017B
:1000D00004C01D92A217B307E1F7E839F40731F71E
:0C00E0000E94180C0C948525F894FFCFAA
:1000EC00573A00643A004C696768743A0020202043
:1000FC002020202000202020202020002020202034
:10010C0020004125640A4225640A432564002563C6
:03011C0025640057
:10011F0068076C094C836A9074A07AC00080688865
:06012F0000846C820081D7
:0F013500203C2D2D20456E766961646F200A00F5
:07014400286E756C6C2900A8
:06014B00286E696C29001A
:0101510001AC
:10015200A2E9B1E0EFEAF0E00C94E9237C01590155
:10016200C457DE4F488359836A83CC58D140C15764
:10017200DE4F19821882CF58D140612C712C6E014A
:100182002EE7C21A2EEFD20A8CE891E08C0F9D1F47
:100192000397CF56DE4F99838883C159D140C45704
:1001A200DE4F2881CC58D140C357DE4F9881CD58BD
:1001B200D140C257DE4F8881CE58D140E22FF92F6D
:1001C200949187FD9081992309F409C48AE0D601AC
:1001D2001D928A95E9F782E091E08C0F9D1FF6014E
:1001E20097838683A0E8B0E0B187A087BE016457F9
:1001F2007E4FC7010E9487218C01C457DE4F888140
:100202009981AA81CC58D140FC012491A7FD20817B
:10021200211116C0C157DE4F28813981CF58D140F4
:10022200020F131FC157DE4F19830883CF58D140E5
:10023200FC012491A7FD2081253209F0B9C34FC0EA
:10024200253241F3C7010E940F1F4C01019609F1AB
:10025200C457DE4F2881CC58D140C357DE4F888126
:10026200CD58D140C257DE4F9881CE58D140E22FAF
:10027200F82F849197FD8081082E000C990B881627
:10028200990639F0B701C4010E948F238EEF9FEFC8
:100292009AC3C157DE4F88819981CF58D1400196C8
:1002A200C157DE4F99838883CF58D140C457DE4F60
:1002B20088819981AA81CC58D1400196A11DC45749
:1002C200DE4F88839983AA83CC58D140BE016457FC
:1002D2007E4FC7010E948721080F191F8ECF9C01F4
:1002E2004A2F2F5F3F4F4F4FC457DE4F288339832A
:1002F2004A83CC58D140F60115821482F901249127
:1003020047FD20812A3261F40296A11DC457DE4FB7
:1003120088839983AA83CC58D14001E010E002C0BF
:1003220000E010E0C457DE4F688179818A81CC58A1
:10033200D1400E949920D60115969C938E931497D2
:10034200C457DE4F288139814A81CC58D140F90106
:10035200849147FD8081082E000C990BC0970A9763
:1003620058F42F5F3F4F4F4FC457DE4F28833983D6
:100372004A83CC58D140E4CFCE0184579E4F0E948D
:100382000120582EC457DE4F2881CC58D140C35784
:10039200DE4F8881CD58D140C257DE4F9881CE586A
:1003A200D140E22FF82F849197FD8081082E000C16
:1003B200990B0E94CD25883691052CF5853691053D
:1003C2000CF0FBC08136910509F4F7C04CF485327C
:1003D200910509F477C18B35910509F4A2C1D8C200
:1003E2008336910509F411C18436910509F0D0C212
:1003F2009E0121573E4FA601BE016F5F7F4FC7018D
:100402000E94122225C08037910509F479C0ACF40C
:100412008E36910509F49EC00CF041C089369105D3
:1004220009F0B6C29E0121573E4FA601BE016F5F81
:100432007F4FC7010E947E110BC08537910521F1C4
:1004420088379105B9F18337910509F0A1C20EC130
:1004520097FDB9C2C457DE4F88819981AA81CC58D1
:10046200D1400196A11DC457DE4F88839983AA8388
:10047200CC58D1400115110509F050C1652D70E02D
:10048200950141E050E061C09E0121573E4FA60117
:10049200BE016F5F7F4FC7010E94392215C09E01C6
:1004A20021573E4FA601BE016F5F7F4FC7010E94D9
:1004B2000B1A0AC09E0121573E4FA601BE016F5F73
:1004C2007F4FC7010E94931597FD7DC2C457DE4F2F
:1004D20088819981AA81CC58D1400196A11DC45727
:1004E200DE4F88839983AA83CC58D1400115110528
:1004F20009F014C1652D70E0950140E050E025C07F
:100502009E0121573E4FA601BE016F5F7F4FC7017B
:100512000E94931597FD57C2C457DE4F8881998177
:10052200AA81CC58D1400196A11DC457DE4F8883C1
:100532009983AA83CC58D1400115110509F0EEC068
:10054200950140E050E060EF70E0CE0101960E941C
:10055200DF1639C2C457DE4F88819981AA81CC58EF
:10056200D1400196A11DC457DE4F88839983AA8387
:10057200CC58D140C057DE4F9881C059D140C157A5
:10058200DE4F2881CF58D140892F880F880B2983CD
:100592009A838B838C838D838E838F8388870115C7
:1005A200110509F0BBC0652D70E0950140E050E0F7
:1005B200CE0101960E94DF16B1C09E0121573E4F27
:1005C200A601BE016F5F7F4FC7010E94112697FDF2
:1005D200FAC1C457DE4F88819981AA81CC58D14093
:1005E2000196A11DC457DE4F88839983AA83CC58F4
:1005F200D1400115110509F091C0652D70E0A501EA
:10060200CE0101960E941E21DEC1B0E85B12C0C17C
:10061200F60184819581892B21F481E090E0958314
:100622008483C457DE4F88819981AA81CC58D140F6
:100632000196A11DC457DE4F88839983AA83CC58A3
:10064200D140012B59F4D501ED91FC911197CF01C5
:1006520002968D939C930081118102C000E010E00C
:100662009E0121573E4F40E050E027C0B0E85B12A8
:100672008FC1C457DE4F88819981AA81CC58D1405D
:100682000196A11DC457DE4F88839983AA83CC5853
:10069200D140012B59F4D501ED91FC911197CF0175
:1006A20002968D939C930081118102C000E010E0BC
:1006B2009E0121573E4F41E050E0B601C7010E9422
:1006C200861C81C1B0E85B1263C1C457DE4F8881CA
:1006D2009981AA81CC58D1400196A11DC457DE4F01
:1006E20088839983AA83CC58D140C7010E940F1FE7
:1006F2008532910581F4C157DE4F88819981CF58A7
:10070200D1400196C157DE4F99838883CF58D1409B
:1007120081E090E058C1B7010E948F2380E090E011
:1007220052C1E0E85E1234C1012B59F4D501ED91BA
:10073200FC911197CF0102968D939C9300811181B8
:1007420002C000E010E0C457DE4F88819981AA817F
:10075200CC58D1409C014A2F2F5F3F4F4F4FC45777
:10076200DE4F288339834A83CC58D140F901249142
:1007720047FD20812E3561F40296A11DC457DE4F3C
:1007820088839983AA83CC58D1409924939401C039
:10079200912C41E051E0692D70E0CE0101960E945A
:1007A20090251982C457DE4F88819981AA81CC583D
:1007B200D140FC012491A7FD20812D3279F40196CC
:1007C200A11DC457DE4F88839983AA83CC58D14098
:1007D20081E089198FA751E0591933C02D35D9F716
:1007E2000196A11DC457DE4F88839983AA83CC58F2
:1007F200D14081E08919A0968FAFA097ECCF8823D2
:1008020009F476C08D3259F1C457DE4F888199813F
:10081200AA81CC58D140FC012491A7FD2081E2E0BD
:10082200F0E0EC0FFD1FE20FF11D27FDFA9550835A
:100832000196A11DC457DE4F88839983AA83CC58A1
:10084200D140C457DE4F288139814A81CC58D140EA
:10085200F901849147FD80818D3589F649C0C157E0
:10086200DE4F6881CF58D140C057DE4F9881C059C2
:10087200D140CF56DE4F8881C159D140E62FF92FA2
:10088200949187FD9081992309F4BECF9D3509F497
:10089200BBCF2F5F3F4F4F4FC457DE4F2883398363
:1008A2004A83CC58D140CF56DE4FE881F981C159F5
:1008B200D140608181819281E62FF82F849197FD4A
:1008C2008081082E000C990BF901649147FD60812B
:1008D200062E000C770B861797070CF095CF019622
:1008E200E1E0F0E0EC0FFD1FE80FF91F5083ECCFC1
:1008F2000115110511F118012101401A510AC70110
:100902000E940F1F4C01E2E0F0E0EC0FFD1FE80F28
:10091200F91F8081882371F1D1018D921D01C15788
:10092200DE4F88819981CF58D1400196C157DE4F61
:1009320099838883CF58D140DFCFC7010E940F1F10
:100942004C01E2E0F0E0EC0FFD1FE80FF91F80819F
:10095200882371F0C157DE4F88819981CF58D140E9
:100962000196C157DE4F99838883CF58D140E5CF96
:10097200412C512CB701C4010E948F234114510410
:1009820039F00115110521F0F801E40DF51D108271
:10099200C457DE4F88819981AA81CC58D1400196F3
:1009A200A11DC457DE4F88839983AA83CC58D140B6
:1009B20081E090E0BFEF8B169B0611F080E090E0A3
:1009C20091958195910997FD03C0680E791EE7CB39
:1009D2008F3FEFEF9E0719F46114710409F0C30110
:0A09E200CE56DE4FE2E10C9405242E
:1009EC00A3EAB0E0ECEFF4E00C94E9234C015901DC
:1009FC00C756DF4F488359836A83C959D040212C8D
:100A0C00312C6E012BE8C20ED11C85E2782E26010A
:100A1C0030E8632ECE018D569F4FC456DF4F99831D
:100A2C008883CC59D0409C0140E8CF55DF4F2883B8
:100A3C0039834A83C15AD040C756DF4F4881C959C0
:100A4C00D040C656DF4F5881CA59D040C556DF4FEB
:100A5C006881CB59D040FA01849167FD808188234D
:100A6C0009F4C9C3CF57DF4F19821882C158D0403F
:100A7C008FEF9FEFCD57DF4F99838883C358D040BA
:100A8C00CB57DF4F19821882C558D040A1E0B0E097
:100A9C00AC0FBD1FC957DF4FB983A883C758D040CF
:100AAC00E0E8F0E0C757DF4FF983E883C958D0403E
:100ABC00CA01A62FE12CF12CFC012491A7FD208169
:100ACC0021111BC0E114F10401F19701C4010E9432
:100ADC005321C756DF4F88819981AA81C959D040CB
:100AEC008E0D9F1DA11DF7FCAA95C756DF4F88835D
:100AFC009983AA83C959D04008C00196A11D2532FB
:100B0C0009F3FFEFEF1AFF0AD7CFC756DF4F8881E3
:100B1C009981AA81C959D040FC012491A7FD20815B
:100B2C00253209F056C39C014A2F2F5F3F4F4F4F80
:100B3C00C256DF4F288339834A83CE59D040C756DB
:100B4C00DF4F288339834A83C959D040C756DF4FBA
:100B5C0088819981AA81C959D040FC012491A7FDB3
:100B6C0020812B3241F4CF57DF4F28813981C15876
:100B7C00D04024600BC02C32CCF02D3259F5CF571D
:100B8C00DF4F28813981C158D0402160CF57DF4FCA
:100B9C0039832883C158D0400196A11DC756DF4F19
:100BAC0088839983AA83C959D040D0CF203241F48D
:100BBC00CF57DF4F28813981C158D0402860E6CF0C
:100BCC00233291F4CF57DF4F28813981C158D0405F
:100BDC002061DCCF203341F4CF57DF4F288139819E
:100BEC00C158D0402260D2CF2A3299F50196A11D6E
:100BFC00C756DF4F88839983AA83C959D040D50142
:100C0C00ED91FC911197CF0102968D939C9380816D
:100C1C009181CB57DF4F99838883C558D04097FF7C
:100C2C003EC0CF57DF4F28813981C158D040B1E049
:100C3C002B27CF57DF4F39832883C158D04091954C
:100C4C0081959109CB57DF4F99838883C558D04044
:100C5C0026C0BC018A2F0E949920CB57DF4F998365
:100C6C008883C558D040C756DF4F288139814A81C7
:100C7C00C959D040F901849147FD8081082E000CA0
:100C8C00990BC0970A9758F42F5F3F4F4F4FC75699
:100C9C00DF4F288339834A83C959D040E4CFCF57DB
:100CAC00DF4F88819981C158D04080FF07C08D7F6C
:100CBC00CF57DF4F99838883C158D040C756DF4F39
:100CCC0088819981AA81C959D040FC012491A7FD42
:100CDC0020812E3209F058C0CD57DF4F198218826F
:100CEC00C358D0409C014A2F2F5F3F4F4F4FC756E0
:100CFC00DF4F288339834A83C959D040F901549175
:100D0C0047FD50815A32D1F40296A11DC756DF4FD0
:100D1C0088839983AA83C959D040D501ED91FC9160
:100D2C001197CF0102968D939C9380819181CD5721
:100D3C00DF4F99838883C358D04026C0842FB901D4
:100D4C000E949920CD57DF4F99838883C358D04098
:100D5C00C756DF4F288139814A81C959D040F901E2
:100D6C00849147FD8081082E000C990BC0970A973F
:100D7C0058F42F5F3F4F4F4FC756DF4F28833983AF
:100D8C004A83C959D040E4CFCE0187569F4F0E9469
:100D9C000120182FC756DF4F2881C959D040C6569D
:100DAC00DF4F8881CA59D040C556DF4F9881CB5947
:100DBC00D040E22FF82F849197FD8081082E000CF3
:100DCC00990B0E94CD258936910509F45AC0B4F4CB
:100DDC008336910509F466C144F48532910509F412
:100DEC00A1C18136910529F1B3C18436910509F46D
:100DFC0048C0883691050CF42DC1AAC180379105E5
:100E0C0009F4CBC04CF48E36910509F419C18F3618
:100E1C00910509F47CC09CC18537910509F454C037
:100E2C008837910509F496C08337910509F090C174
:100E3C0058C1612F70E0A501C6010E945023892B77
:100E4C0009F4B7C1C756DF4F88819981AA81C95966
:100E5C00D0409C014A2F2F5F3F4F4F4FC756DF4F5B
:100E6C00288339834A83C959D040FC012491A7FDBA
:100E7C002081A601BE016F577F4FC4010E940E2630
:100E8C0095C1612F70E0950141E050E0C6010E94D0
:100E9C00DA14892B09F48DC1C756DF4F88819981EB
:100EAC00AA81C959D0400196A11DC756DF4F88832E
:100EBC009983AA83C959D040A601BE016F577F4FB1
:100ECC00C4010E941B1472C1612F70E0950140E0B7
:100EDC0050E0C6010E94DA14892B09F46AC1C75686
:100EEC00DF4F88819981AA81C959D0400196A11DF3
:100EFC00C756DF4F88839983AA83C959D040A6016E
:100F0C00BE016F577F4FC4010E94121E4FC1612F4B
:100F1C0070E0950140E050E0C6010E94DA14892B84
:100F2C0009F447C1C756DF4F88819981AA81C959F5
:100F3C00D0400196A11DC756DF4F88839983AA83A1
:100F4C00C959D040A601BE016F577F4FC4010E9402
:100F5C00B41B2CC1612F70E0950140E050E0C6013C
:100F6C000E94DA14892B09F424C1C756DF4F8881FB
:100F7C009981AA81C959D0409C014A2F2F5F3F4FBC
:100F8C004F4FC756DF4F288339834A83C959D04006
:100F9C00FC012491A7FD20814BC0950140E050E05D
:100FAC0060EF70E0C6010E94DA14892B09F401C1CC
:100FBC00C756DF4F88819981AA81C959D0400196C3
:100FCC00A11DC756DF4F88839983AA83C959D04086
:100FDC0086E02BE431E040E0F901DE01AD56BF4F75
:100FEC00742F0E945425D6012C9111963C91119787
:100FFC0012964C91129713965C91139714966C91D0
:10100C00149715967C91159716968C9116971796A2
:10101C009C91A0E00E94792551F400E010E0CF559E
:10102C00DF4F288139814A81C15AD040B9C028E7A5
:10103C00A601BE016F577F4FC4010E943E10B6C07F
:10104C00612F70E09501A1014E0D5F1DC6010E943C
:10105C009F19AFC0612F70E0A501C6010E945023FB
:10106C00892B09F4A6C0C756DF4F88819981AA81C4
:10107C00C959D0409C014A2F2F5F3F4F4F4FC75645
:10108C00DF4F288339834A83C959D040FC0124910E
:10109C00A7FD2081A601BE016F577F4FC4010E949E
:1010AC000E2684C0103809F084C0C756DF4F8881E3
:1010BC009981AA81C959D0400196A11DC756DF4F0D
:1010CC0088839983AA83C959D040D501ED91FC91AD
:1010DC001197CF0102968D939C938081F6018083AA
:1010EC005BC0103809F065C0C756DF4F8881998105
:1010FC00AA81C959D0400196A11DC756DF4F8883DC
:10110C009983AA83C959D040D501ED91FC911197CF
:10111C00CF0103968D939C9320813181428100E015
:10112C0010E03EC0103809F044C0C756DF4F88812C
:10113C009981AA81C959D0400196A11DC756DF4F8C
:10114C0088839983AA83C959D040F601708224C040
:10115C00D6017C92C256DF4F288139814A81CE5903
:10116C00D040C756DF4F288339834A83C959D040B2
:10117C00CF57DF4F19821882C158D040CB57DF4F61
:10118C0019821882C558D0408FEF9FEFCD57DF4F93
:10119C0099838883C358D04001E010E0462D92011A
:1011AC00BE016F577F4FC4010E94511D8E0D9F1DB4
:1011BC0011C0C756DF4F88819981AA81C959D04087
:1011CC000196A11DC756DF4F88839983AA83C959FD
:1011DC00D040C7017101E80EF91EE214F3044CF47F
:1011EC008FE490E090931302809312028FEF9FEFA5
:1011FC0003C0170121CCC101CD55DF4FE2E10C94A6
:02120C000524B7
:10120E0080FF2FC090910601923469F495B121E0D0
:10121E0030E00090070102C0220F331F0A94E2F75C
:10122E00292B25B94FC0933469F498B121E030E0F1
:10123E000090070102C0220F331F0A94E2F7292BF8
:10124E0028B940C09434F1F59BB121E030E0009014
:10125E00070102C0220F331F0A94E2F7292B2BB984
:10126E0031C090910601923471F495B121E030E0D5
:10127E000090070102C0220F331F0A94E2F7209557
:10128E00292325B91FC0933471F498B121E030E0C1
:10129E000090070102C0220F331F0A94E2F7209537
:1012AE00292328B90FC0943469F49BB121E030E0B2
:1012BE000090070102C0220F331F0A94E2F7209517
:1012CE0029232BB981FF2FC090910901923469F423
:1012DE0095B121E030E000900A0102C0220F331FC9
:1012EE000A94E2F7292B25B94FC0933469F498B1CB
:1012FE0021E030E000900A0102C0220F331F0A9451
:10130E00E2F7292B28B940C09434F1F59BB121E0C6
:10131E0030E000900A0102C0220F331F0A94E2F758
:10132E00292B2BB931C090910901923471F495B1EA
:10133E0021E030E000900A0102C0220F331F0A9410
:10134E00E2F72095292325B91FC0933471F498B183
:10135E0021E030E000900A0102C0220F331F0A94F0
:10136E00E2F72095292328B90FC0943469F49BB174
:10137E0021E030E000900A0102C0220F331F0A94D0
:10138E00E2F7209529232BB982FF2FC090910C01F3
:10139E00923469F495B121E030E000900D0102C065
:1013AE00220F331F0A94E2F7292B25B94FC093342D
:1013BE0069F498B121E030E000900D0102C0220FD7
:1013CE00331F0A94E2F7292B28B940C09434F1F563
:1013DE009BB121E030E000900D0102C0220F331FBF
:1013EE000A94E2F7292B2BB931C090910C0192345B
:1013FE0071F495B121E030E000900D0102C0220F92
:10140E00331F0A94E2F72095292325B91FC0933480
:10141E0071F498B121E030E000900D0102C0220F6E
:10142E00331F0A94E2F72095292328B90FC094346C
:10143E0069F49BB121E030E000900D0102C0220F53
:10144E00331F0A94E2F7209529232BB983FF2FC06F
:10145E0090910F01923469F495B121E030E0009043
:10146E00100102C0220F331F0A94E2F7292B25B96F
:10147E004FC0933469F498B121E030E00090100130
:10148E0002C0220F331F0A94E2F7292B28B940C05D
:10149E009434F1F59BB121E030E00090100102C0D0
:1014AE00220F331F0A94E2F7292B2BB931C09091EA
:1014BE000F01923471F495B121E030E000901001EB
:1014CE0002C0220F331F0A94E2F72095292325B973
:1014DE001FC0933471F498B121E030E000901001F8
:1014EE0002C0220F331F0A94E2F72095292328B950
:1014FE000FC0943469F49BB121E030E000901001EC
:10150E0002C0220F331F0A94E2F7209529232BB92C
:10151E0084FF2FC090911201923469F495B121E0AD
:10152E0030E00090130102C0220F331F0A94E2F73D
:10153E00292B25B94FC0933469F498B121E030E0DE
:10154E000090130102C0220F331F0A94E2F7292BD9
:10155E0028B940C09434F1F59BB121E030E0009001
:10156E00130102C0220F331F0A94E2F7292B2BB965
:10157E0031C090911201923471F495B121E030E0B6
:10158E000090130102C0220F331F0A94E2F7209538
:10159E00292325B91FC0933471F498B121E030E0AE
:1015AE000090130102C0220F331F0A94E2F7209518
:1015BE00292328B90FC0943469F49BB121E030E09F
:1015CE000090130102C0220F331F0A94E2F72095F8
:1015DE0029232BB985FF2FC090911501923469F400
:1015EE0095B121E030E00090160102C0220F331FAA
:1015FE000A94E2F7292B25B94FC0933469F498B1B8
:10160E0021E030E00090160102C0220F331F0A9431
:10161E00E2F7292B28B940C09434F1F59BB121E0B3
:10162E0030E00090160102C0220F331F0A94E2F739
:10163E00292B2BB931C090911501923471F495B1CB
:10164E0021E030E00090160102C0220F331F0A94F1
:10165E00E2F72095292325B91FC0933471F498B170
:10166E0021E030E00090160102C0220F331F0A94D1
:10167E00E2F72095292328B90FC0943469F49BB161
:10168E0021E030E00090160102C0220F331F0A94B1
:10169E00E2F7209529232BB986FF2FC090911801D0
:1016AE00923469F495B121E030E00090190102C046
:1016BE00220F331F0A94E2F7292B25B94FC093341A
:1016CE0069F498B121E030E00090190102C0220FB8
:1016DE00331F0A94E2F7292B28B940C09434F1F550
:1016EE009BB121E030E00090190102C0220F331FA0
:1016FE000A94E2F7292B2BB931C09091180192343C
:10170E0071F495B121E030E00090190102C0220F72
:10171E00331F0A94E2F72095292325B91FC093346D
:10172E0071F498B121E030E00090190102C0220F4F
:10173E00331F0A94E2F72095292328B90FC0943459
:10174E0069F49BB121E030E00090190102C0220F34
:10175E00331F0A94E2F7209529232BB988237CF5B1
:10176E0080911B01823469F425B181E090E00090F4
:10177E001C0102C0880F991F0A94E2F7822B85B9CB
:10178E000895833469F428B181E090E000901C0143
:10179E0002C0880F991F0A94E2F7822B88B9089528
:1017AE008434F1F52BB181E090E000901C0102C071
:1017BE00880F991F0A94E2F7822B8BB908958091B6
:1017CE001B01823471F425B181E090E000901C0180
:1017DE0002C0880F991F0A94E2F78095822385B97B
:1017EE000895833471F428B181E090E000901C01DB
:1017FE0002C0880F991F0A94E2F78095822388B958
:10180E000895843469F42BB181E090E000901C01BE
:10181E0002C0880F991F0A94E2F7809582238BB934
:02182E0008951B
:10183000F89441E060EA76E881E090E00E94B61D0D
:1018400002E010E020E043E060E082E00E94EC1C57
:1018500040E060E088E60E940F23A0904802B0902C
:101860004902C0904A0260904B0270904C028090F6
:101870004D0220914E0230914F02409150026091F2
:1018800051027091520280915302909156029F939F
:10189000909155029F93909154029F939091590279
:1018A0009F93909158029F93909157029F9390918C
:1018B0005C029F9390915B029F9390915A029F9339
:1018C00090915F029F9390915E029F9390915D0231
:1018D0009F93909144029F93909143029F93909184
:1018E00042029F93909147029F93909146029F934B
:1018F000909145029F93082D73010E944C1384B16F
:10190000806284B98FE39FE10197F1F700C0000086
:10191000789485E4809363028091660280931E012F
:101920008DB79EB742960FB6F8949EBF0FBE8DBF7F
:101930000E946A1EBC0180E090E00E94E12060935A
:101940003E0270933F0280934002909341020E94B6
:101950001E1C60933A0270933B0280933C0290936A
:101960003D029FEF29EF80E0915020408040E1F759
:1019700000C0000080913E0290913F02A091400281
:10198000B09141028093360290933702A0933802BF
:10199000B09339020E94BD2585B1806285B981E48A
:1019A0000E947F24811103C00E94C52537C080E0BA
:1019B0000E943825809368020E94C5259FEF20E78A
:1019C00082E0915020408040E1F700C0000080910B
:1019D0006802853150F420911E019091660229130E
:1019E00004C086E4809363020BC0853148F0909177
:1019F0001E0180916602981303C085E48093630200
:101A00000E94BD2580E40E947F24809163020E9491
:101A10007F240E94C52585B18F7D85B98FE19EE425
:101A20000197F1F700C000000E94BD2585B18062DA
:101A300085B983E40E947F24811103C00E94C525DB
:101A40006CC080E00E943825809367020E94C52503
:101A50009FEF20E782E0915020408040E1F700C0F6
:101A6000000085B18F7D85B9809167028A3A58F070
:101A70000E94BD2582E40E947F2480E40E947F248E
:101A80000E94C5250AC00E94BD2582E40E947F24D1
:101A900081E40E947F240E94C52580916402811107
:101AA00014C00E94BD2582E40E947F2483E40E942A
:101AB0007F240E94C52590911E0180916602981393
:101AC0002CC081E08093640228C08130A1F40E9480
:101AD000BD2582E40E947F2482E40E947F240E942C
:101AE000C52590911E0180916602981316C082E070
:101AF0008093640212C00E94BD2582E40E947F246C
:101B000084E40E947F240E94C52590911E0180914B
:101B10006602981302C0109264028FE19EE401975E
:101B2000F1F700C0000061E082E00E9461256CEEE8
:101B300070E080E00E94302361E087E00E94612530
:101B40006FEE70E080E00E94302361E08BE00E9445
:101B5000612562EF70E080E00E94302362E082E065
:101B60000E94612569EF70E080E00E94302362E00E
:101B700087E00E94612561E071E080E00E943023EF
:101B800062E08BE00E94612568E071E080E00E94E5
:101B90003023609136027091370280913802909123
:101BA00039020E94D525DC01CB014AE050E065EA0C
:101BB00071E00E94761A62E082E00E94612585EA67
:101BC00091E06C0120E8E22E8E2DB6010E943023B8
:101BD000809168024AE050E065EA71E090E00E947E
:101BE000761A62E087E00E9461258E2DB6010E9480
:101BF0003023809167024AE050E065EA71E090E0AE
:101C00000E94761A62E08BE00E9461258E2DB6015B
:101C10000E9430238FEF90E722E0815090402040D7
:101C2000E1F700C00000809162028F5F8093620242
:101C3000883071F560913E0270913F0280914002C0
:101C4000909141020E94D525809168021F928F9346
:101C5000809167021F928F937F936F938EE091E044
:101C6000A0E0AF939F938F93C5E8D1E0DF93CF932C
:101C70000E94E324BE0180E80E94CC2310926202FD
:101C80008DB79EB70B960FB6F8949EBF0FBE8DBF53
:101C90009FEF29E688E1915020408040E1F700C0A5
:041CA000000046CE2C
:101CA400ACE1B0E0E8E5FEE00C94E9231B01482E2A
:101CB400598B488B3C8F2B8F0A8F253231051CF4AE
:101CC4002130310539F486E190E09093130280933A
:101CD4001202A3C161157105810509F49EC1FB01BE
:101CE400149147FC1081112309F497C1842C31010C
:101CF400103239F0812F012E000C990B09970597AA
:101D040048F4FFEF6F1A7F0A8F0AF301149187FCDE
:101D14001081EECF1D3259F42FEF621A720A820A33
:101D2400F301149187FC108131E03E870BC01B3214
:101D340041F48FEF681A780A880AF301149187FC3A
:101D440010811E86103309F052C0E82C63019FEF06
:101D5400C91AD90AE90AF6011491E7FC10818B8D9E
:101D64009C8D8F7E892B09F044C0812F8F7D88350F
:101D7400A9F5E2E06E0E711C811CF301149187FC3D
:101D84001081812F8062082E000C990B81569109D5
:101D9400212F012E000C330B3C8F2B8F4A9738F0E8
:101DA4008B8D9C8D0E94CF24892B41F049C18B8D52
:101DB4009C8D0E9499258753803194F316014E2CF3
:101DC40088899989892B09F02DC11982512C912C6C
:101DD4001A821B821C821D821E8242C1EB8DFC8DE5
:101DE400EF2B09F435C136018E2C01E00DC000E063
:101DF40003C036018E2C01E02B8D3C8D232B21F466
:101E04008AE090E09C8F8B8F9A8D992399F0EE85D0
:101E1400E1111FC0FFEFFA8B2FEF2B8B3FEF3C8BB1
:101E24008FEF8D8B9FEF9E8BEFEFEF8BF88F2FE76C
:101E3400298F18C03FEF3A8B8FEF8B8B9FEF9C8BD2
:101E4400EFEFED8BFFEFFE8B2FEF2F8B388F898F0A
:101E540009C01A8A1B8A1C8A1D8A1E8A1F8A188E28
:101E640090E8998F1F861982512C912C1A821B821B
:101E74001C821D821E82EC8DEE0FEE0BE887212F53
:101E84002062022E000C330B21563109812F012EC2
:101E9400000C990B2A31310528F40E9499258753A7
:101EA4008F8306C0C0970A9708F096C010531F830B
:101EB400FF818F2FFF0F990B2B8D3C8D821793077A
:101EC4000CF08AC03F85311163C0A980B52CC92CA0
:101ED400DA80EB80FC800D811E812B8D3C8D488542
:101EE400542F642F742F842F942F0E94B11F5901F3
:101EF4006A017B018C019F81990F990B2F81392FE6
:101F0400492F592F692F792F892F0E94AB252F83B1
:101F140039874A875B876C877D87B82FA92F2981EA
:101F2400352D492D5A816B817C818D819E81AF80B5
:101F3400B984CA84DB84EC84FD840B2F1A2F0E949D
:101F4400B42509F070F48A8D882381F12A893B89AC
:101F54004C895D896E897F89888D998D0E94B4250D
:101F640028F5E2E2F0E0F0931302E0931202FA891A
:101F7400FF832B8929873C893A878D898B879E89A2
:101F84009C87EF89ED87B88DA98DF1E0FF870EC09E
:101F940029812F8359869A863A813B878B818C8746
:101FA4009C819D87BD81AE81E1E0EF87FFEF6F1AD1
:101FB4007F0A8F0AF301149187FC108101E02F81BD
:101FC400298359849A843B853A838C858B839D85A8
:101FD4009C83BD83AE8353CFEF85E11115C0FE858D
:101FE400FF2391F02981352D492D5A816B817C8104
:101FF4008D819E810E9419252983532E942E5A8304
:102004006B837C838D839E8328893989232B41F1BB
:10201400002381F01301482C0DC0E889F989EF2BC6
:1020240009F4D3CE1982512C912C1A821B821C8262
:102034001D821E82E889F98920823182428210C081
:10204400E82C630100E020E130E03C8F2B8F05C0D9
:1020540001E088E090E09C8F8B8F36018E2CD4CEEB
:102064002981352D492D5A816B817C818D819E81F9
:082074006C96E2E10C940524D6
:10207C00A4E1B0E0E4E4F0E10C94E92398878F83C9
:10208C007A8369835C8B4B8B122FDB011296ED915B
:10209C00FC91139714962D913C9115973E832D83AB
:1020AC00ED90FC90119716962D903C901797F7FD9C
:1020BC0003C0E894E1F802C0E1E0F0E0C7018071F0
:1020CC0099279A878987E4FE1FC0AB89BC892C911C
:1020DC0011963C91119712964C91129713965C9114
:1020EC00139714966C91149715967C9115971696D8
:1020FC008C91169717969C91A0E00E94792521F05F
:10210C008D819E81029702C08D819E8197012870DE
:10211C0033273C872B87E3FC0197AB89BC894C9018
:10212C0011965C90119712966C90129713967C9066
:10213C00139714968C90149715969C901597169649
:10214C00AC9016971796BC90A981BA811896CD9031
:10215C00DC901997B1E0CB1AD108D101AC0DBD1DA3
:10216C001C929C838B839F01281B390B3E872D87E8
:10217C00C70182709927988B8F87812F012E000CB5
:10218C00990BDC01A154B109BA8BA98B32E0C316AF
:10219C00D10434F489859A85892B09F04CC073C01D
:1021AC009201A301B401C501A0E00E94792581F13F
:1021BC00B1E0CB1AD108C2018F7099278A309105F2
:1021CC0014F4C09602C0895A9F4FE989FA897A970C
:1021DC0048F49C012062215631092A31310510F452
:1021EC000E949925F101EC0DFD1D80832B813C8112
:1021FC00215031093C832B839201A301B401C50109
:10220C0004E00E94B02329013A014B015C01BECFCE
:10221C008D859E85AB81BC818A0F9B1F1816190674
:10222C003CF21A161B060CF0B5CFEF85F889EF2B94
:10223C0009F0BECFAFCFAB89BC892C9111963C91E4
:10224C00119712964C91129713965C9113971496C2
:10225C006C91149715967C91159716968C911697F0
:10226C0017969C91A0E00E94792569F0F101EC0D84
:10227C00FD1D31971083B2E0CB1AD108F101EC0DA2
:10228C00FD1D80E38083EB85FC85EF2B41F0F1E0B5
:10229C00CF1AD108F101EC0DFD1D80E28083A981DC
:1022AC00BA8118962D913C911997215031092C190E
:1022BC003D09C20CD31CA60160E80D811E818F81E3
:1022CC0098850E94A9189C01EF81F88580819181E5
:1022DC0090FF09C0A981BA8112968D919C91139798
:1022EC00821793070CF4C9016496E2E10C9405245F
:1022FC00A8E0B0E0E4E8F1E10C94E9234C01788724
:10230C006F83FA015901848195819A838983E084D2
:10231C00F18426803780C4010E94A822F501208117
:10232C003181820F931F9183808389819A81892BBC
:10233C0021F4F7013197FA83E9834AE0C42ED12CBA
:10234C00612C712C00E010E0C70101979E838D83F6
:10235C0089819A81081719070CF097C0ED81FE81CD
:10236C000E171F070CF091C0C4010E940F1F7C01B7
:10237C009FEFE916F90639F4101611060CF485C016
:10238C008FEF9FEFA4C001151105B1F4EBE2EE162F
:10239C00F10421F0FDE2EF16F10471F4F101E08299
:1023AC00F5018081918101969183808366246394E9
:1023BC00712C01E010E0CCCFC101800F911F9C83E8
:1023CC008B8306151705C1F538019FEF691A790A39
:1023DC00EAE0CE16D10441F4F0E3EF16F10451F526
:1023EC0028E0C22ED12C28C088E0C816D10411F5E3
:1023FC00C701806288379105E9F4C4010E940F1F60
:10240C002C01B4010E948F23C2010E94BB24892B92
:10241C0071F0EB81FC81E0828301F5018081918177
:10242C0001969183808390E1C92ED12C91CFB40178
:10243C00C20111C0612C712CC701C0970A9770F0B2
:10244C00F0E1CF16D10429F4C7010E94BB24892BDB
:10245C0081F4B401C7010E948F2317C088E0C8160D
:10246C00D10439F498E3E916F1041CF08AE0C82E83
:10247C00D12CEB81FC81E0820F5F1F4FF501808135
:10248C00918101969183808363CFF101E00FF11F5D
:10249C001082B10180E8FAE0CF16D10439F42AE0B9
:1024AC0030E040E050E00E94F72505C0960140E086
:1024BC0050E00E94FD25EF81F88520833183428313
:1024CC005383648375838683978380E090E028969A
:0624DC00E2E10C9405246E
:1024E2001F920F920FB60F921124CF92DF92EF92AA
:1024F2001F932F933F934F935F936F937F938F938A
:102502009F93AF93BF93EF93FF93CF93DF9300D04B
:102512000F92CDB7DEB78091C600809311028091F1
:10252200C00085FFFCCF1091C600809111020E946D
:10253200F6241A3029F0E0916002E73008F489C0ED
:1025420089E092E06C0120E8E22E682F7D2D822F37
:102552000E94CC23E0916002F0E0E75FFD4F108221
:1025620010926002CE0101969F938F9302969F93E1
:102572008F938AE191E0A0E0AF939F938F93EF92C4
:10258200DF92CF920E9485228B810FB6F894DEBF34
:102592000FBECDBF833599F589819A81813091052E
:1025A200B9F01CF4892B39F05CC082309105B9F086
:1025B2000397E9F056C080916302863429F4809132
:1025C200660280931E014DC081E08093610249C082
:1025D2008091650280931E011092640242C0809134
:1025E200650280931E0181E0809364023AC080916B
:1025F200650280931E0182E08093640232C08434BB
:1026020081F589819A818130910599F08230910515
:10261200C1F0892B31F580916102813011F5109260
:1026220061028091660280931E0186E480936302B8
:1026320018C08091650280931E0185E48093630235
:1026420010C08091650280931E0187E4809363022B
:1026520008C081E08E0F80936002F0E0E75FFD4FDB
:1026620010830F900F900F90DF91CF91FF91EF9118
:10267200BF91AF919F918F917F916F915F914F9198
:102682003F912F911F91EF90DF90CF900F900FBE4F
:062692000F901F90189547
:10269800AF92BF92CF92EF92FF920F93CF93DF93B7
:1026A800CDB7DEB76E970FB6F894DEBF0FBECDBFBD
:1026B80069837A838B832C833D834E83EF82F886EC
:1026C8000987AA86BB86CC8689A59AA5ABA58D87DE
:1026D8009E87AF878CA59DA5AEA5888B998BAA8B65
:1026E8008FA598A9A9A98B8B9C8BAD8B8AA99BA92F
:1026F800ACA98E8B9F8BA88F8DA99EA9AFA9898F16
:102708009A8FAB8F88AD99ADAAAD8C8F9D8FAE8F08
:10271800AE014F5F5F4F60E82EE130E080E091E06E
:102728000E94202480E090E057C0FC01EE0FFF1FBC
:10273800E80FF91F21E030E02C0F3D1FE20FF31FD7
:1027480020812234B9F444B1FC01EE0FFF1FE80FD9
:10275800F91F21E030E02C0F3D1FE20FF31F21E0AD
:1027680030E0018002C0220F331F0A94E2F7242BC5
:1027780024B931C02334B9F447B1FC01EE0FFF1F6F
:10278800E80FF91F21E030E02C0F3D1FE20FF31F87
:1027980021E030E0018002C0220F331F0A94E2F7E3
:1027A800242B27B918C02434B1F44AB1FC01EE0F28
:1027B800FF1FE80FF91F21E030E02C0F3D1FE20F4B
:1027C800F31F21E030E0018002C0220F331F0A947A
:1027D800E2F7242B2AB901968A30910508F4A5CF8F
:1027E80015B818B81BB88FE39CE90197F1F700C03A
:1027F800000080E80E947A1788E30E947A178CE02C
:102808000E947A1786E00E947A1781E00E947A1760
:102818006E960FB6F894DEBF0FBECDBFDF91CF9195
:0E2828000F91FF90EF90CF90BF90AF9008956A
:10283600ADE0B0E0E1E2F4E10C94E9239A87898700
:102846007C836B83FA01DB011296CD90DC901397A3
:1028560014968D919C9115979E838D83ED90FC9097
:102866001197FA82E98216960D90BC91A02DB88731
:10287600AF8320803180428053806480758086805B
:1028860097808101B42DF52DE62D7B868C869D865D
:102896009101A201B301C401A0E00E9479254CF484
:1028A6000E9419258901B42FF52FE62F7B878C8787
:1028B6009D87D7FC04C0E894E1F8FA82E982910189
:1028C600A201B301C401A0E0ED80FE800E9479253B
:1028D6001CF0898182FF04C081E0E81AF10805C076
:1028E60083FF03C091E0E91AF108CE0101965C016D
:1028F6008AE0C82ED12C2B2F3F2F4E2F5B856C855F
:102906007D858B819C810E943A16FC019101A20172
:10291600B301C401A0E00E9479251CF0898182FFE1
:1029260012C031970F8118850E0F1F1F9101A2014A
:10293600B301C401A0E00E94792514F08BE201C026
:102946008DE2D80108C083FF07C03197AF81B885F3
:10295600AE0FBF1F80E28C93E980FA80AB81BC8109
:1029660018962D913C911997215031092E1B3F0B3A
:102976008F819885E80FF91FAF0160E80D811E81F0
:1029860089859A850E94A9189C01A985BA858D9189
:102996009C9190FF07C0EB81FC8182819381821715
:0E29A60093070CF4C9012D96E2E10C94052470
:1029B4000F931F93CF93DF93FC01D90168387105FE
:1029C40031F194F461387105B1F12CF4603871057A
:1029D40009F478C09FC06238710509F459C064389D
:1029E400710509F46FC096C0603A710509F448C0D6
:1029F4002CF46039710509F44BC08CC0603C71053E
:102A040009F476C0603F710509F472C083C0CD91AA
:102A1400DC911197CE0102968D939C93452B39F04E
:102A24009881892F880F880B908381835BC088816C
:102A34008083118268C0CD91DC911197CE010496F8
:102A44008D939C93452B99F088819981AA81BB81B0
:102A5400AC01BD01770F440B542FBA0180839183DD
:102A6400A283B383448345834683478328C0088174
:102A740019812A813B81008311832283338345C0DA
:102A8400CD91DC911197CE0102968D939C9323C036
:102A9400CD91DC911197CE0108968D939C9378810A
:102AA40069815A814B813C812D819E818F81708304
:102AB400618352834383348325839683878381E0B0
:102AC40090E02AC0CD91DC911197CE0102968D93AE
:102AD4009C93452BA1F099812881892F880F880B1D
:102AE4002083918382838383848385838683E6CF53
:102AF400CD91DC911197CE0102968D939C93088120
:102B04001981008311831282138214821582168222
:102B14001782D5CF80E090E0DF91CF911F910F9184
:022B2400089512
:102B2600A4E0B0E0E9E9F5E10C94E9237C017C83BB
:102B36006B83FA01590144805580C084D184668034
:102B460077800E94A822F50120813181820F931F90
:102B5600918380834114510421F42601F1E04F1A38
:102B66005108130100E010E0C60101979A8389839A
:102B7600041515050CF042C089819A8108171907BA
:102B8600ECF5C7010E940F1F6C019FEFC916D9060D
:102B960031F41016110694F18FEF9FEF64C0C60151
:102BA6000E94BB24892BF1F401301105B1F4C60152
:102BB6000E94CD258837910581F4F3018081803309
:102BC60061F4C7010E940F1F4C01B7010E948F23B9
:102BD600C4010E94BB24892B29F4B701C6010E94B7
:102BE6008F230CC0F101C1921F010F5F1F4FF5012A
:102BF60080819181019691838083BACFD301A00F02
:102C0600B11F1C92033011053CF4EB81FC8110824C
:102C160011821282138221C0F301329600E010E085
:102C26009801819190ED980F9A3018F0806299EA98
:102C3600980F84E0000F111F221F331F8A95D1F7CA
:102C4600090F111D211D311DAE17BF0751F7EB816D
:102C5600FC810083118322833383148215821682BA
:0E2C6600178280E090E02496E2E10C940524B1
:102C7400A2E1B0E0E0E4F6E10C94E923FC010A8B64
:102C84001B832C83732E642E552E462E7D83CC8677
:102C9400D886BF82AE82868197819B878A87D50139
:102CA4004D915C91228133818085918501971C012E
:102CB40037FF02C021E030E0EA85FB85E80FF91F09
:102CC40010824701E1E0F0E0FA83E983C9018E193B
:102CD4009F099E878D87DA01A270BB27B88BAF87C7
:102CE400B885BB0FBB0BB98B1214130474F0A98104
:102CF400BA81AB2B09F05CC0AE81BF818D919C91F0
:102D040011978F7E8D939C9353C02A893B814C816C
:102D1400572D662D752D842D9D81A0E00E94792567
:102D2400B1F1E1E02E1A3108FC85F987AF2EB884A1
:102D3400C988DC2CEC2CFC2C0C2D1C2D2A893B8105
:102D44004C81572D662D752D842D9D810E9446251D
:102D5400C90129839A83EA85FB85E20DF31D805D11
:102D6400808381E0881A91082A893B814C81572D00
:102D7400662D752D842D9D810E9448252A8B3B83C9
:102D84004C83752E662E572E482E9D83ADCF8D8590
:102D94009E85880D991D181619061CF2181419041D
:102DA4000CF0A5CFEF85F889EF2B09F0BACF9FCFB0
:0A2DB400C1016296E2E10C940524CF
:102DBE00CF93DF93FC01D9016838710521F18CF4B2
:102DCE006138710561F12CF46038710509F476C033
:102DDE0085C062387105B1F16438710509F46EC0B1
:102DEE007DC0603A710509F469C024F4603971053B
:102DFE0049F174C0603C710509F460C0603F710513
:102E0E0009F45CC06BC0CD91DC911197CE01029696
:102E1E008D939C93A881B98180818C935CC0CD9158
:102E2E00DC911197CE0102968D939C93A881B98166
:102E3E0040815181628173814D935D936D937C933B
:102E4E00139749C0CD91DC911197CE0102968D93C7
:102E5E009C93452B99F0708161815281438134811D
:102E6E00258196818781E881F98170836183528300
:102E7E00438334832583968387832DC0A881B981AC
:102E8E007081618152814381348125819681878150
:102E9E007C9311966C93119712965C9312971396DE
:102EAE004C93139714963C93149715962C93159751
:102EBE0016969C93169717968C930DC0CD91DC9118
:102ECE001197CE0102968D939C93A881B981808132
:102EDE0091818D939C9381E090E002C080E090E020
:062EEE00DF91CF91089571
:102EF40090910001923471F495B121E030E000909A
:102F0400010102C0220F331F0A94E2F720952923FE
:102F140025B91FC0933471F498B121E030E00090DA
:102F2400010102C0220F331F0A94E2F720952923DE
:102F340028B90FC0943469F49BB121E030E00090CB
:102F4400010102C0220F331F0A94E2F720952923BE
:102F54002BB90E94070980910301823469F425B1D9
:102F640081E090E00090040102C0880F991F0A9448
:102F7400E2F7822B85B91DC0833469F428B181E05E
:102F840090E00090040102C0880F991F0A94E2F7B0
:102F9400822B88B90EC0843461F42BB181E090E0B7
:102FA4000090040102C0880F991F0A94E2F7822B53
:102FB4008BB98FE79EE30197F1F700C00000809181
:102FC4000301823471F425B181E090E000900401A2
:102FD40002C0880F991F0A94E2F78095822385B96D
:102FE4000895833471F428B181E090E000900401E5
:102FF40002C0880F991F0A94E2F78095822388B94A
:103004000895843469F42BB181E090E000900401C8
:1030140002C0880F991F0A94E2F7809582238BB926
:0230240008950D
:1030260090910001923469F495B121E030E000906E
:10303600010102C0220F331F0A94E2F7292B25B99A
:103046001DC0933469F498B121E030E0009001018D
:1030560002C0220F331F0A94E2F7292B28B90EC0AB
:10306600943461F49BB121E030E00090010102C08C
:10307600220F331F0A94E2F7292B2BB90E94070966
:1030860080910301823469F425B181E090E00090DB
:10309600040102C0880F991F0A94E2F7822B85B9B2
:1030A6001DC0833469F428B181E090E000900401EA
:1030B60002C0880F991F0A94E2F7822B88B90EC0C6
:1030C600843461F42BB181E090E00090040102C0E9
:1030D600880F991F0A94E2F7822B8BB98FE79EE33C
:1030E6000197F1F700C0000080910301823471F46A
:1030F60025B181E090E00090040102C0880F991F7D
:103106000A94E2F78095822385B90895833471F491
:1031160028B181E090E00090040102C0880F991F59
:103126000A94E2F78095822388B90895843469F475
:103136002BB181E090E00090040102C0880F991F36
:0C3146000A94E2F7809582238BB908956B
:103152002F923F924F926F927F928F92AF92BF9235
:10316200CF92DF92EF92FF920F931F93CF93DF9351
:10317200CDB7DEB766970FB6F894DEBF0FBECDBFF0
:103182005C013A01862E6901C701817099279C8BE7
:103192008B8BE0FC1DC020173107D4F47801EC18AA
:1031A200FD08FE8AED8AA70191E1E916F10410F00B
:1031B20040E150E060E270E0CE0101969A8B898B8B
:1031C2000E94902589899A891C0120E8422E0BC011
:1031D2009601682DA301C5010E945321C016D10694
:1031E200ECF2C60125C090E1E916F10458F020E1A5
:1031F20030E0642DA101C5010E94532180E1E81A4B
:10320200F108F1CF2D893E892F70332789899A8958
:10321200AC0160E8C5010E9453218B899C89892BEE
:1032220031F49601682DA301C5010E945321C80102
:1032320066960FB6F894DEBF0FBECDBFDF91CF9179
:103242001F910F91FF90EF90DF90CF90BF90AF90C2
:0E3252008F907F906F904F903F902F90089537
:1032600010C00E94E32558F00E94DC2540F029F4AC
:103270005F3F29F00C94F12551110C94EB250C942F
:103280000B260E94CB2268F39923B1F3552391F3C7
:10329000951B550BBB27AA2762177307840738F0C5
:1032A0009F5F5F4F220F331F441FAA1FA9F335D022
:1032B0000E2E3AF0E0E832D091505040E695001CD6
:1032C000CAF72BD0FE2F29D0660F771F881FBB1F90
:1032D000261737074807AB07B0E809F0BB0B802D6E
:1032E000BF01FF2793585F4F3AF09E3F510578F09A
:1032F0000C94F1250C94EB255F3FE4F3983ED4F356
:10330000869577956795B795F7959F5FC9F7880F6D
:10331000911D9695879597F90895E1E0660F771FBF
:10332000881FBB1F621773078407BA0720F0621B50
:0E333000730B840BBA0BEE1F88F7E09508951F
:10333E00CF93DF93DC01F90164387105D9F164F4A0
:10334E006138710521F16238710509F440C06038A9
:10335E00710509F054C02EC060397105C1F184F4B5
:10336E006838710509F04BC0C081D181CE0102963B
:10337E0091838083E881F981ED93FC9340833CC077
:10338E00603A7105B9F0603C7105A1F038C0C0819A
:10339E00D181CE01029691838083E881F981ED93EC
:1033AE00FC93052E000C660B770B408351836283D2
:1033BE00738322C0C081D181CE0102969183808316
:1033CE00E881F981ED93FC935183408315C0C08150
:1033DE00D181CE01029691838083E881F981ED93AC
:1033EE00FC9351834083852F880F880B82838383C0
:1033FE00848385838683878381E090E002C080E0AA
:08340E0090E0DF91CF910895D9
:10341600A0E0B0E0E1E1FAE10C94EB234C01EB0112
:10342600FA016901A480B58060847184E680F78022
:103436000E94A822F60120813181820F931F918379
:103446008083A114B10421F45301F1E0AF1AB1084D
:10345600270100E010E021E0621A71080A151B0539
:1034660024F5061517050CF5C4010E940F1F8F3FA2
:10347600EFEF9E0721F410161106BCF02DC09C013B
:10348600205331092830310520F0B4010E948F23E2
:103496000CC0F20181932F010F5F1F4FF60180814F
:1034A6009181019691838083D9CFF701E00FF11FB7
:1034B6001082B70180E828E030E040E050E00E944A
:1034C600FD25288339834A835B836C837D838E83C2
:1034D6009F8380E090E002C08FEF9FEFCDB7DEB70D
:0634E600E0E10C94072454
:1034EC00CF92DF92EF92FF920F931F93CF93DF93C4
:1034FC00FC01EB018A01009721F480E38883198297
:10350C0050C0992354F44A30510551F4F195E1958A
:10351C00F109CC24C394D12C05C0C12CD12C02C0F0
:10352C00C12CD12C20E030E018C0CF01B8010E9492
:10353C00932479014FEFE41AF40ADE01A20FB31FB2
:10354C008A30910514F0895A01C0805D8C93CF01AB
:10355C00B8010E949324FB019701309731F7CD28D5
:10356C0039F0FE01E20FF31F8DE280832F5F3F4F96
:10357C00FE01E20FF31F1082C901019720E030E039
:10358C000DC0DE01A20FB31F4C91FE01E80FF91F15
:10359C0050815C9340832F5F3F4F01972817390769
:1035AC0084F3DF91CF911F910F91FF90EF90DF90FB
:0435BC00CF9008950F
:1035C0000FC00E94DC2538F00E94E32520F09523EF
:1035D00011F00C94F1250C940B2611240C94EB257E
:1035E0000E94CB2270F3959FC1F3950F50E0551FB9
:1035F000629FF001729FBB27F00DB11D639FAA2748
:10360000F00DB11DAA1F649F6627B00DA11D661F96
:10361000829F2227B00DA11D621F739FB00DA11DB7
:10362000621F839FA00D611D221F749F3327A00D71
:10363000611D231F849F600D211D822F762F6A2F0D
:1036400011249F5750409AF0F1F088234AF0EE0F72
:10365000FF1FBB1F661F771F881F91505040A9F79F
:103660009E3F510580F00C94F1250C94EB255F3FB3
:10367000E4F3983ED4F3869577956795B795F795DB
:10368000E7959F5FC1F7FE2B880F911D9695879553
:0436900097F9089509
:10369400A0E0B0E0E0E5FBE10C94EF235C01FB016A
:1036A4004A01C480D58000851185E680F7800E9498
:1036B400A822F40120813181820F931F918380839A
:1036C400C114D10421F46801F1E0CF1AD108C0E09B
:1036D400D0E001501109CC15DD05BCF5C017D107A8
:1036E400A4F5C5010E940F1F8F3F2FEF920721F40D
:1036F4001C161D0654F12FC0209789F48B329105B6
:1037040019F08D32910559F4F7018083F401808119
:103714009181019691838083C1E0D0E0DCCF9C014C
:10372400205331092A30310520F0B5010E948F233E
:103734000CC0F701EC0FFD1F80832196F4018081FA
:103744009181019691838083C6CFCE0DDF1D1882AF
:1037540080E090E002C08FEF9FEFCDB7DEB7ECE0E2
:043764000C940B2492
:10376800A2E0B0E0EAEBFBE10C94E9231C014B0179
:10377800FA01DB0112962D913C91139714964D9006
:103788005C9015978D919C9111979A8389831696D1
:103798006D907C90179737FD03C08D7F9A8389833E
:1037A800008111812281338144815581668177812D
:1037B800FE0131965F0188E0C82ED12C7201C40148
:1037C8000E943A16298124FF06C00197F301E80FE9
:1037D800F91F20E32083298123FF06C00197F30105
:1037E800E80FF91F20E22083E980FA80D4011896B7
:1037F8002D913C91199721503109281B390B860DC1
:10380800971DAC0160E88201C1010E94A9189C01C2
:10381800F1018081918190FF08C0D40112968D91A9
:103828009C911397821793070CF4C9012296E2E141
:043838000C940524C3
:10383C008F929F92AF92BF92CF92DF92EF92FF92B4
:10384C00CF9387E40E947023C82F88E40E947023D2
:10385C006C2F70E0762F6627682B072E000C880BD8
:10386C00990B0E94E32020916A02222371F02830E8
:10387C00A9F02031E1F40F2EF3E38F2E982CF3E016
:10388C00AF2EF2E4BF2EF02D1BC00F2E812C912CED
:10389C00F3E0AF2EF3E4BF2EF02D12C00F2E812CCF
:1038AC00912CF3E8AF2EF2E4BF2EF02D09C00F2EB1
:1038BC00F3E38F2E982CF3E8AF2EF1E4BF2EF02D0E
:1038CC002BED3FE049E450E40E9407266B017C019C
:1038DC0020E030E044E353E4C501B4010E94072624
:1038EC009B01AC01C701B6010E940326CF91FF904A
:1038FC00EF90DF90CF90BF90AF909F908F900895F6
:10390C00A0E0B0E0ECE8FCE10C94ED236C01EB01E1
:10391C005A017901452B49F00E94A822F701208118
:10392C003181820F931F918380836C807D8048014D
:10393C00C0E0D0E06114710449F5C6010E940F1F6C
:10394C008F3FFFEF9F0731F4209789F10115110587
:10395C0009F527C0A114B10449F08032910551F149
:10396C009C01295031092530310520F10115110533
:10397C0011F0F40180832196F701808191810196E9
:10398C0091838083FFEF8F1A9F0AD4CFC615D7057A
:10399C00A4F2DCCFA114B10421F0F801EC0FFD1F4F
:1039AC00108281E090E0CD2B61F480E00AC08FEFB3
:1039BC009FEF07C0B6010E948F230115110589F3F3
:0C39CC00ECCFCDB7DEB7EEE00C94092480
:1039D8000F931F939AB19E7F9AB99AB192609AB940
:1039E800E0ECF0E010829081823011F432E001C006
:1039F80030E0932B9093C000E1ECF0E010829081CE
:103A08009068908390819061908390819860908372
:103A18009081342F3470932B9083E2ECF0E0108285
:103A28009081811102C030E401C030E0932BE2ECB8
:103A3800F0E09083908130E1639FB0011124692BFD
:103A48006083908150E0440F551F492B408390813B
:103A5800811101C020E0292B2093C200813069F434
:103A6800F8013196EE0FFF1FEC5EFD4F80819181CA
:103A78009093C5008093C4000DC0823059F4000FA4
:103A8800111FF801EC5EFD4F808191819093C50074
:0A3A98008093C4001F910F91089560
:103AA2002F923F924F926F927F928F92AF92BF92DC
:103AB200CF92DF92EF92FF920F931F93CF93DF93F8
:103AC200CDB7DEB727970FB6F894DEBF0FBECDBFD6
:103AD2006C017B013901842E980184E4282E81E057
:103AE200382E80E0482E87E0F101AE014F5F5F4F34
:103AF200DA01742D0E945425F70102811381A480FA
:103B0200B580E080F18061147104810419F43A01F6
:103B1200F0E88F2E2115310529F4882DB3010E947A
:103B220069249C0117FD04C00217130708F49801C9
:103B32008501682DA301C6010E94A91827960FB618
:103B4200F894DEBF0FBECDBFDF91CF911F910F91D1
:103B5200FF90EF90DF90CF90BF90AF908F907F90CB
:0A3B62006F904F903F902F90089550
:103B6C000F931F93CF938B019C01C42F87B180734C
:103B7C0087B9443079F018F4413031F023C040312A
:103B8C0091F04034C9F01EC0E9EBF0E080818C7FED
:103B9C0080831EC0E9EBF0E080818D7F8083808183
:103BAC008160808315C0E9EBF0E080818E7F80839B
:103BBC008081826080830CC0E9EBF0E080818360BF
:103BCC00808306C0E9EBF0E080818C7F8083C1E0CC
:103BDC0060E074E284EF90E0A90198010E94ED226C
:103BEC00CA01B90160517109810991094C2F50E04A
:103BFC009A01220F331F032E000C440B550B0E940D
:103C0C00ED222093B800ECEBF0E08081846080839F
:083C1C00CF911F910F91089553
:103C2400A2E0B0E0E8E1FEE10C94E9233C014B01A1
:103C3400FA01DB0112962D913C91139714964D9045
:103C44005C9015978D919C9111979A838983169610
:103C54002D903C90179737FD03C08D7F9A838983FD
:103C6400008111812281338144815581668177816C
:103C7400FE0131965F018AE0C82ED12C7201C40185
:103C84000E943A16E980FA80D40118962D913C914D
:103C9400199721503109281B390B820D931DAC0152
:103CA40060E88201C3010E94A9189C01F30180818C
:103CB400918190FF08C0D40112968D919C91139725
:103CC400821793070CF4C9012296E2E10C940524AF
:103CD4008F929F92AF92BF92CF938FE30E947023F3
:103CE400C82F80E40E9470236C2F70E0762F662723
:103CF400682B072E000C880B990B0E94E32020915F
:103D04006902222369F02830A1F02031D1F40F2E6A
:103D1400812C912CF0E8AF2EF5E4BF2EF02D18C0C5
:103D24000F2E812C912CF0E8AF2EF6E4BF2EF02D4F
:103D34000FC00F2E812C912CA12CF6E4BF2EF02D58
:103D440007C00F2E812C912CA12CF5E4BF2EF02D51
:103D54002FE135E84BE151E40E940726A5019401C7
:103D64000E9403260E94BB21CB01CF91BF90AF904C
:063D74009F908F9008955E
:103D7A006F927F928F92EF92FF920F931F93CF933E
:103D8A00DF93CDB7DEB761970FB6F894DEBF0FBEEB
:103D9A00CDBFFE01319651E1DF011D925A95E9F737
:103DAA00A2E0B1E0BA83A9839C838B8377FF09C021
:103DBA008FE490E090931302809312028FEF9FEFAB
:103DCA0019C03901842E7C01615071097F836E8389
:103DDA009801682DA301CF010E9451244885598575
:103DEA002E813F814217530708F49A01F701E20F27
:103DFA00F31F108261960FB6F894DEBF0FBECDBFD7
:103E0A00DF91CF911F910F91FF90EF908F907F904C
:043E1A006F90089508
:103E1E00CF93DF93DC011B968D919C911C9700979D
:103E2E00B9F001971C969C938E931B97FD01E80F9A
:103E3E00F91F818517962D913C9118972F5F3F4F53
:103E4E0018963C932E931797082E000C990B2EC0A4
:103E5E008D919C91119790FF16C012962D913D91C8
:103E6E004C911497F901849147FD8081082E000C26
:103E7E00990B0097C9F02F5F3F4F4F4F12962D931E
:103E8E003D934C930FC01F96ED91FC915097309738
:103E9E0059F0ED01CD0109952F8138852F5F3F4FE8
:103EAE0038872F83992702C08FEF9FEFDF91CF9135
:023EBE00089565
:103EC00088249924F401E401B0E49F93AA279A1569
:103ED0008B049C04ED05FE05CF05D007A10798F4DF
:103EE000AD2FDC2FCF2FFE2FE92D982C892E982F68
:103EF000872F762F652F542F432F322F2227B8502C
:103F000031F7BF9127C01B2EBF91BB27220F331F54
:103F1000441F551F661F771F881F991F881C991CF7
:103F2000EE1FFF1FCC1FDD1FAA1FBB1F8A149B049F
:103F3000EC05FD05CE05DF05A007B10748F08A189E
:103F40009B08EC09FD09CE09DF09A00BB10B21602C
:103F50001A94E1F62EF49401AF01BE01CD01000CDC
:023F60000895C2
:103F6200DF93CF931F930F939A9DF02D219FF00D16
:103F72008B9DF00D8A9DE02DF10D039FF00D029FA8
:103F8200E00DF11D4E9DE00DF11D5E9DF00D4F9D6A
:103F9200F00D7F936F93BF92AF925F934F93D501D2
:103FA2000E9429258B01AC01D7010E942925EB0132
:103FB200E80FF91FD6010E94A2252F913F91D60149
:103FC2000E942925C60FD71FE81FF91FAF91BF9185
:103FD2000E94A2252F913F910E942925C60FD71F2B
:103FE200E81FF91FD6010E942925E60FF71F980145
:103FF200BE01CF0111240F911F91CF91DF9108953E
:10400200CF92DF92EF92DC0190E0292F30E0220F75
:10401200331F6901032E000CEE086E2DA601415ECE
:104022005E4F6F4F6A01E62EFA018491E7FC8081B0
:1040320081110DC02F5F3F4F032E000C440B215EF8
:104042003E4F4F4FF901849147FD808124C0CD90AE
:10405200DD90EC901297F6014491E7FC40818413C5
:1040620015C02F5F3F4F032E000C440B215E3E4FC5
:104072004F4FF901949147FD90815FEFC51AD50A20
:10408200E50ACD92DD92EC92129701C09F5F9B30C0
:0E40920008F4BBCF892FEF90DF90CF900895F8
:1040A0000F931F93CF93DF93DB012D913C911197D9
:1040B00030FF25C017964D915C91189715962D915C
:1040C0003C9116974217530778F41296ED91FC91A4
:1040D0001397808312962D913C9113972F5F3F4F3A
:1040E00013963C932E93129717962D913C91189707
:1040F0002F5F3F4F18963C932E93179715C01D9630
:10410000ED91FC911E97309719F48FEF9FEF0CC043
:104110008B01EC010995892BC1F7F8018781908506
:10412000019690878783CE01DF91CF911F910F91E8
:024130000895F0
:10413200CF939B01482FF901849147FD8081803202
:10414200C9F1682F082E000C770B69507109653090
:10415200710580F18B3249F5A0E0B0E02F5F3F4F4F
:104162004F4F02C0A0E0B0E080E090E0CAE0F90169
:10417200649147FD6081062E000C770B6053710934
:104182006A30710560F4C89FF001C99FF00D1124D7
:104192002F5F3F4F4F4FCF01861B970BE8CFAB2BC3
:1041A20069F491958195910909C08D32D9F6A1E002
:1041B200B0E0D4CF2F5F3F4F4F4FBDCFCF91089587
:1041C200E89409C097FB3EF49095809570956195AF
:1041D2007F4F8F4F9F4F9923A9F0F92F96E9BB2765
:1041E2009395F695879577956795B795F111F8CFE1
:1041F200FAF4BB0F11F460FF1BC06F5F7F4F8F4F4C
:104202009F4F16C0882311F096E911C0772321F041
:104212009EE8872F762F05C0662371F096E8862FD9
:1042220070E060E02AF09A95660F771F881FDAF730
:0A423200880F9695879597F9089577
:10423C00CF93DF93DC01FA0161387105A9F0633883
:10424C00710521F06038710519F50EC0C081D1815E
:10425C00CE010296918380838D919D910D90BC919E
:10426C00A02DE881F9810DC0C081D181CE010296CB
:10427C0091838083E881F9818D919D910D90BC9102
:10428C00A02D80839183A283B38381E090E002C050
:0A429C0080E090E0DF91CF910895DB
:1042A6006F927F928F92CF92DF92EF920F931F932E
:1042B600CF93DF938C016A01E62EE9013A01862E3F
:1042C600620E731E811C37FD8A94C614D704E80457
:1042D60079F0F6018491E7FC8081B801082E000C84
:1042E600990B0E9450208FEFC81AD80AE80AEDCF22
:1042F600CE01DF91CF911F910F91EF90DF90CF907C
:084306008F907F906F900895E5
:10430E00CF93DF93EB01488129813A81E42FF22F7D
:10431E00249137FD2081203259F0022E000C330BF0
:10432E00295031092530310518F080E090E019C090
:10433E000E94A822288139814A812F5F3F4F4F4F1B
:10434E00288339834A83F901249147FD2081203245
:10435E0089F3022E000C330B29503109253031051B
:08436E0048F3DF91CF9108959F
:104376000E94D32288F09F5798F0B92F9927B751FA
:10438600B0F0E1F0660F771F881F991F1AF0BA95F3
:10439600C9F714C0B13091F00E94EA25B1E0089542
:1043A6000C94EA25672F782F8827B85F39F0B93F34
:1043B600CCF3869577956795B395D9F73EF49095A6
:0E43C6008095709561957F4F8F4F9F4F0895A2
:1043D4001F93CF93DF93C82F162F0E94BD25809182
:1043E4006B02880F0E947F24D82F8C2F0E947F2479
:1043F400C82F812F0E947F24182F0E94C525DC130B
:1044040006C0C11306C0D13031F080E005C080E0A1
:1044140003C080E001C081E0DF91CF911F91089536
:104424000F931F93CF93DF93EB01BA01FA01068137
:104434001781A9010E944A1B8F3FFFEF9F0791F04C
:10444400B80180E82AE030E040E050E00E94F7251F
:10445400288339834A835B836C837D838E839F8324
:0E44640080E090E0DF91CF911F910F910895BD
:104472000F931F93CF93DF93EB01BA01FA010681E9
:104482001781A9010E944A1B8F3FFFEF9F0791F0FE
:10449200B80180E82AE030E040E050E00E94FD25CB
:1044A200288339834A835B836C837D838E839F83D6
:0E44B20080E090E0DF91CF911F910F9108956F
:1044C0001F920F920FB60F9211248F939F93AF9369
:1044D000BF938091320290913302A0913402B09147
:1044E00035020196A11DB11D8093320290933302D3
:1044F000A0933402B0933502BF91AF919F918F91F9
:0A4500000F900FBE0F901F9018954A
:10450A00A1E1B0E0EBE8F2E20C94F923CE010196C6
:10451A0021E1FC0111922A95E9F722E031E03A8380
:10452A0029832E893F89488D2B833C834D839E01A5
:10453A00245E3F4F498D5A8D6B8D0E9439246196B6
:06454A00E2E00C941524D0
:104550000F931F93CF93DF938C01C0E0D0E0C8018D
:104560000E940F1F8F3F2FEF920779F08032910545
:1045700051F09C01295031092530310520F0B80156
:104580000E948F2302C02196EACFCE01DF91CF9106
:064590001F910F91089538
:1045960057FD9058440F551F59F05F3F71F04795EE
:1045A600880F97FB991F61F09F3F79F087950895D3
:1045B600121613061406551FF2CF4695F1DF08C0F2
:1045C600161617061806991FF1CF8695710561050F
:0445D60008940895A8
:1045DA00A1E21A2EAA1BBB1BFD010DC0AA1FBB1FFD
:1045EA00EE1FFF1FA217B307E407F50720F0A21B6F
:1045FA00B30BE40BF50B661F771F881F991F1A94DC
:10460A0069F760957095809590959B01AC01BD0105
:04461A00CF0108952F
:10461E0080936B0260936A024093690260E08BE6BE
:10462E000E94EA212FEF81EE94E0215080409040CD
:10463E00E1F700C0000060E08AE60E94EA212FEF59
:10464E0081EE94E0215080409040E1F700C00000E0
:02465E000895BD
:10466000CF92DF92EF92CF93DF936B01E82EC0E001
:10467000D0E003C00E9413182196AE2DC6018C0F06
:104680009D1FA11DD7FDAA95FC018491A7FD8081E6
:104690008111F0CFDF91CF91EF90DF90CF9008950F
:1046A000FA0160387105CCF0623871051CF063388E
:1046B000710599F4A081B1819D012C5F3F4F318339
:1046C00020834D915D916D917C91FC0140835183DC
:1046D0006283738381E090E0089580E090E0089524
:1046E000CF93C82F0E94BD2580916B02880F0E9436
:1046F0007F248C2F0E947F240E94BD2580916B0215
:1047000090E0880F991F81600E947F2480E00E94C2
:0E4710003825C82F0E94C5258C2FCF91089503
:10471E00FB018F3F2FEF9207B9F0238534852230AE
:10472E00310594F4A9014F5F5F4F54874387DB0136
:10473E00A20FB31F19968C93278130852150310912
:0E474E0030872783992708958FEF9FEF0895F6
:10475C0097FB10F8169400080F93083098F0085047
:10476C00232F342F452F562F672F782F892F902DDD
:10477C00F4CF0594979587957795679557954795B9
:0C478C00379527950A95AAF70F9108951C
:10479800CF92DF92EF926B01E82E20E007C0809164
:1047A800C00085FFFCCF9093C6002F5FAE2DC601D9
:1047B800820F911DA11DFC019491A7FD908191117B
:0A47C800EECFEF90DF90CF90089540
:1047D2002F923F924F925F926F927F928F929F920F
:1047E200AF92BF92CF92DF92EF92FF920F931F93FD
:1047F200CF93DF93CDB7DEB7CA1BDB0B0FB6F894AE
:08480200DEBF0FBECDBF09941B
:10480A002A88398848885F846E847D848C849B8456
:10481A00AA84B984C884DF80EE80FD800C811B8164
:10482A00AA81B981CE0FD11D0FB6F894DEBF0FBE93
:06483A00CDBFED01089561
:10484000CF92DF92EF926A01E62EDC01280F391F2A
:10485000A217B30751F0F6014491E7FC40814D9354
:104860004FEFC41AD40AE40AF3CFEF90DF90CF9051
:024870000895A9
:10487200A2E0B0E0EFE3F4E20C94F7238C013A8378
:1048820029839E012F5F3F4F0E94A900F8012081DA
:1048920024FF02C08FEF9FEF2296E4E00C941324D2
:1048A200A2E0B0E0E7E5F4E20C94F7238C013A834E
:1048B20029839E012F5F3F4F0E94F604F801208159
:1048C20024FF02C08FEF9FEF2296E4E00C941324A2
:1048D200CF92DF92EF926B01E82EA82FCB01FC0161
:1048E2002491A7FD2081222319F00196A11DF7CF63
:0C48F2008C199D09EF90DF90CF90089585
:1048FE008093BB0084E88093BC008091BC00882329
:10490E00E4F78091B900887F883121F0883219F45C
:08491E0081E0089581E0089595
:1049260097FB072E16F4009407D077FD09D00E9456
:10493600A72407FC05D03EF4909581959F4F0895D6
:08494600709561957F4F089503
:10494E00AA1BBB1B51E107C0AA1FBB1FA617B707A7
:10495E0010F0A61BB70B881F991F5A95A9F78095C3
:08496E009095BC01CD010895F4
:104976009C01205331092A30310558F08062815656
:10498600910931E020E0069708F030E0832F922F5E
:08499600089581E090E008950E
:10499E009C012062215631092A31310550F09C01CB
:1049AE002053310981E090E02A30310520F080E07B
:0849BE00089581E090E00895E6
:1049C600A0E0B0E0E9EEF4E20C94F9239E01265F44
:1049D6003F4F4F81588569858D819E810E946D2547
:0649E600E2E00C94152430
:1049EC00CF93DF930F92CDB7DEB789838981809304
:1049FC00C60065E371E080E00E94CC230F90DF914C
:044A0C00CF910895A9
:104A1000092E0394000C11F4882352F0BB0F40F4CC
:104A2000BF2B11F460FF04C06F5F7F4F8F4F9F4F0C
:024A30000895E7
:104A3200609570958095909530954095509521950B
:104A42003F4F4F4F5F4F6F4F7F4F8F4F9F4F089595
:104A5200A29FB001B39FC001A39F700D811D1124BD
:0E4A6200911DB29F700D811D1124911D0895AC
:104A7000882311F084EC01C084E88093BC0080910D
:0C4A8000BC008823E4F78091BB0008957F
:104A8C00689401C0E8948F929F92CF93DF930E9419
:0C4A9C00601FDF91CF919F908F900895D4
:104AA800992777FD05C005900D920197E1F70895C4
:0A4AB80001900D920197E1F70895B7
:104AC200613021F481580E947A170895623019F4F6
:084AD20081540E947A17089537
:104ADA000F931F9389019A01462F6FEF7FE70E9478
:084AEA00BD1E1F910F910895FC
:104AF2000024A7FD00942A173005400550056005E3
:084B020070058005900508957F
:104B0A00EC010E9419260E941826CE010E941A263C
:064B1A00CE010E941626E8
:104B2000FC01480F591FE417F50711F06193FBCF03
:024B30000895E6
:104B32009C01215631092A31310510F48F759927CC
:024B42000895D4
:104B44000E942925460F571FC81FD91F08F4319604
:024B54000895C2
:104B56002A0D3B1D4C1D5D1D6E1D7F1D801F911F67
:024B66000895B0
:104B68002A153B054C055D056E057F0580079107F5
:024B780008959E
:104B7A0084EA8093BC008091BC008823E4F70895FE
:104B8A0084E98093BC008091BC0084FDFCCF089529
:104B9A009C01215431092A31310508F480620895B3
:0E4BAA000E94BB216894B1110C94EB25089574
:0E4BB80000240A94161617061806090608951A
:0E4BC60000240A94121613061406050608951C
:0E4BD400E894BB2766277727CB0197F9089551
:0C4BE20097F99F6780E870E060E008959C
:0C4BEE000F9301E00E94520E0F910895F9
:0C4BFA000F9300E00E94520E0F910895EE
:084C06000E9430190C940825EE
:084C0E000E94E01A0C94082535
:064C16009FEF80EC089501
:064C1C0080E090E0089525
:064C220080E090E008951F
:044C28000C940000E8
:044C2C000E9474006E
:024C30000895E5
:024C32000895E3
:024C34000895E1
:104C36004003A001CF008A00670044003300220031
:0E4C4600190010000800070003000100000024
:034C540044070012
:034C570044060010
:034C5A004405000E
:034C5D004404000C
:034C60004403000A
:034C630044020008
:034C660042030006
:034C690042020004
:034C6C0042010002
:034C6F0042000000
:014C7200023F
:014C7300013F
:00000001FF
