S00E0000536C617665322E73726563E9
S11300000C943D000C945A000C945A000C945A0021
S11300100C945A000C945A000C945A000C945A00F4
S11300200C945A000C945A000C945A000C945A00E4
S11300300C945A000C945A000C945A000C945A00D4
S11300400C945A000C945A000C945A000C945A00C4
S11300500C945A000C9432010C945A000C945A00DB
S11300600C948B010C945A00B100B700BE00C5007B
S1130070CC00D300DA00E100E80011241FBECFEF6A
S1130080D8E0DEBFCDBF11E0A0E0B1E0E6EDF0E1E5
S113009002C005900D92A430B107D9F721E0A4E085
S11300A0B1E001C01D92AF30B207E1F70E940E012A
S11300B00C9469080C940000ECE7F0E01082808155
S11300C08064808380818F77808380818062808355
S11300D0EAE7F0E010828081806880838081886014
S11300E0808380818760808308958230C1F028F402
S11300F0882349F0813069F008958430E1F0A8F054
S11301008530F9F00895EEE7F0E080818160808326
S11301100895EEE7F0E08081826080830895EEE741
S1130120F0E08081846080830895EEE7F0E08081D0
S1130130886080830895EEE7F0E0808180618083A9
S11301400895EEE7F0E0808180628083089590E076
S11301508930910508F042C0FC01EC5CFF4F0C941F
S11301607905ECE7F0E08081807F808337C0ECE79D
S1130170F0E08081807F8160808330C0ECE7F0E034
S11301808081807F8260808329C0ECE7F0E08081F9
S1130190807F8360808322C0ECE7F0E08081807FF1
S11301A0846080831BC0ECE7F0E08081807F856001
S11301B0808314C0ECE7F0E08081807F86608083D8
S11301C00DC0ECE7F0E08081807F8760808306C00B
S11301D0ECE7F0E08081807F886080838091790003
S11301E00895EAE7F0E08081806480838FE39FE1F3
S11301F00197F1F700C00000089597B19F7C97B96B
S1130200880F8093BA0085E48093BC00089584B17C
S1130210806284B98AB18C608AB90895F89417B859
S113022084B1866284B981E20E94FD000E94510378
S11302300E945C0083E00E9475000E94070168E050
S113024070E082E00E94140260E081E00E94F30109
S11302508FE39CE90E944B020E94510378940E9410
S1130260F100FDCF1F920F920FB60F9211242F931E
S11302703F934F935F936F937F938F939F93AF932A
S1130280BF93EF93FF93EAE7F0E08081806180837E
S113029083E00E94A700809304018091050161E03E
S11302A090E00E94BB0280910401863920F085B160
S11302B08F7D85B903C085B1806285B980910401C1
S11302C01F928F9380E091E09F938F938091090117
S11302D08F93809108018F930E947F05809108017C
S11302E0909109010E9440030F900F900F900F907E
S11302F00F900F90FF91EF91BF91AF919F918F91CC
S11303007F916F915F914F913F912F910F900FBE0D
S11303100F901F9018951F920F920FB60F921124F1
S11303208F939F93EF93FF938091B900887F8038D8
S1130330A1F028F4803659F0803749F046C0883A55
S1130340C1F1883BB1F1803909F03FC006C0ECEB44
S1130350F0E08081806880833DC08091BB00809301
S11303600A01ECEBF0E08081806C808380910A01CB
S1130370823499F028F4803441F0813451F02AC059
S1130380833479F0843489F025C08BB18C608BB9C7
S113039021C08BB1837F8BB91DC08DE9809305018A
S11303A019C08FE08093050115C086E48093050190
S11303B011C0809104018093BB0085EC8093BC0044
S11303C095B180E2892785B905C0ECEBF0E0808126
S11303D080698083FF91EF919F918F910F900FBE61
S11303E00F901F901895813019F0823079F008959C
S11303F0613031F4E0E8F0E08081806C808308951E
S1130400E0E8F0E08081806880830895613031F411
S1130410E0E8F0E08081806380830895E0E8F0E024
S11304208081806280830895109280001092810000
S11304306830710521F06115744039F00BC0E1E8B2
S1130440F0E090819260908305C0E1E8F0E0908153
S113045095609083813019F0823061F00895E0E86E
S1130460F0E0808183608083E1E8F0E0808188604F
S113047080830895E0E8F0E0808182608083E1E891
S1130480F0E080818861808381E090E090930701AF
S113049080930601089520910601309107012130CF
S11304A0310529F490938700809386000895109273
S11304B007011092060108954F925F926F927F9206
S11304C0AF92BF92CF92DF92EF92FF920F931F935E
S11304D0CF93DF93CDB7DEB728970FB6F894DEBF7E
S11304E00FBECDBF29013A01ED82FE820F8318872A
S11304F00E94700369837A838B839C83A601950190
S1130500698D7A8D8B8D9C8D0E9470039B01AC014B
S113051069817A818B819C810E940C0569837A832D
S11305208B839C83A3019201C801B7010E947003CD
S11305309B01AC0169817A818B819C810E94DD03DE
S11305409B01AC01C601B5010E94710328960FB648
S1130550F894DEBF0FBECDBFDF91CF911F910F91F5
S1130560FF90EF90DF90CF90BF90AF907F906F900F
S11305705F904F900895AF92BF92CF92DF92EF9227
S1130580FF920F931F93613019F06230C9F16FC06D
S113059090930E0180930D019C0122953295307F3A
S11305A03227207F322728513C4F30930C0120936F
S11305B00B01BC0180E090E00E947E0424E42F93B0
S11305C02AEF2F931F921F920F2EA12CB12CFAE722
S11305D0CF2EF4E4DF2EF02DE12CF12C0FE713E401
S11305E020E030E0A9010E945C020F900F900F9070
S11305F00F900E944F04709389006093880037C065
S113060090930E0180930D019C0122953295307FC9
S11306103227207F322728513C4F30930C012093FE
S11306200B01BC0180E090E00E947E0424E42F933F
S11306302AEF2F931F921F920F2EA12CB12CFAE7B1
S1130640CF2EF4E4DF2EF02DE12CF12C0FE713E490
S113065020E030E0A9010E945C020F900F900F90FF
S11306600F900E944F0470938B0060938A001F9137
S11306700F91FF90EF90DF90CF90BF90AF900895CF
S1130680AC0120E007C09091C00095FFFCCF3093EF
S1130690C6002F5FFA01E20FF11D30813111F3CF53
S11306A008958AB18E7F8AB98AB182608AB9E0ECF2
S11306B0F0E01082808182608083E1ECF0E01082BF
S11306C0808188698083E2ECF0E01082808186601A
S11306D080838FEC90E09093C5008093C4000895CC
S11306E05058BB27AA270E9488030C94D2040E9466
S11306F0C40438F00E94CB0420F039F49F3F19F46D
S113070026F40C94C1040EF4E095E7FB0C94BB04AE
S1130710E92F0E94E30458F3BA17620773078407AA
S1130720950720F079F4A6F50C9405050EF4E095F0
S11307300B2EBA2FA02D0B01B90190010C01CA0197
S1130740A0011124FF27591B99F0593F50F4503E42
S113075068F11A16F040A22F232F342F4427585F34
S1130760F3CF469537952795A795F0405395C9F74C
S11307707EF41F16BA0B620B730B840BBAF0915004
S1130780A1F0FF0FBB1F661F771F881FC2F70EC0A3
S1130790BA0F621F731F841F48F487957795679576
S11307A0B795F7959E3F08F0B0CF9395880F08F062
S11307B09927EE0F9795879508950E94F1030C945D
S11307C0D2040E94CB0458F00E94C40440F029F4DF
S11307D05F3F29F00C94BB0451110C9406050C9452
S11307E0C1040E94E30468F39923B1F3552391F300
S11307F0951B550BBB27AA2762177307840738F08C
S11308009F5F5F4F220F331F441FAA1FA9F335D0E8
S11308100E2E3AF0E0E832D091505040E695001C9C
S1130820CAF72BD0FE2F29D0660F771F881FBB1F56
S1130830261737074807AB07B0E809F0BB0B802D34
S1130840BF01FF2793585F4F3AF09E3F510578F060
S11308500C94BB040C9406055F3FE4F3983ED4F378
S1130860869577956795B795F7959F5FC9F7880F34
S1130870911D9695879597F90895E1E0660F771F86
S1130880881FBB1F621773078407BA0720F0621B17
S1130890730B840BBA0BEE1F88F7E09508950E9442
S11308A0EB0488F09F5798F0B92F9927B751B0F00F
S11308B0E1F0660F771F881F991F1AF0BA95C9F7E0
S11308C014C0B13091F00E940505B1E008950C9474
S11308D00505672F782F8827B85F39F0B93FCCF327
S11308E0869577956795B395D9F73EF4909580955D
S11308F0709561957F4F8F4F9F4F0895E89409C07D
S113090097FB3EF490958095709561957F4F8F4F3E
S11309109F4F9923A9F0F92F96E9BB279395F69554
S1130920879577956795B795F111F8CFFAF4BB0FD2
S113093011F460FF1BC06F5F7F4F8F4F9F4F16C036
S1130940882311F096E911C0772321F09EE8872FC0
S1130950762F05C0662371F096E8862F70E060E07C
S11309602AF09A95660F771F881FDAF7880F9695F5
S1130970879597F9089597F99F6780E870E060E09C
S113098008959FEF80EC089500240A941616170624
S113099018060906089500240A941216130614066C
S11309A005060895092E0394000C11F4882352F0CF
S11309B0BB0F40F4BF2B11F460FF04C06F5F7F4F87
S11309C08F4F9F4F089557FD9058440F551F59F06E
S11309D05F3F71F04795880F97FB991F61F09F3F28
S11309E079F087950895121613061406551FF2CF51
S11309F04695F1DF08C0161617061806991FF1CFA1
S1130A0086957105610508940895E894BB276627C7
S1130A107727CB0197F908950E941F050C94D204FF
S1130A200E94C40438F00E94CB0420F0952311F0F6
S1130A300C94BB040C94C10411240C9406050E946C
S1130A40E30470F3959FC1F3950F50E0551F629F27
S1130A50F001729FBB27F00DB11D639FAA27F00D13
S1130A60B11DAA1F649F6627B00DA11D661F829F3A
S1130A702227B00DA11D621F739FB00DA11D621F1F
S1130A80839FA00D611D221F749F3327A00D611D3C
S1130A90231F849F600D211D822F762F6A2F11241E
S1130AA09F5750409AF0F1F088234AF0EE0FFF1F51
S1130AB0BB1F661F771F881F91505040A9F79E3FA8
S1130AC0510580F00C94BB040C9406055F3FE4F3DD
S1130AD0983ED4F3869577956795B795F795E795FE
S1130AE09F5FC1F7FE2B880F911D9695879597F907
S1130AF00895EE0FFF1F0590F491E02D0994AEE0E8
S1130B00B0E0E5E8F5E00C9440080D891E8986E024
S1130B108C831A8309838FEF9FE79E838D83AE01B5
S1130B20475E5F4F6F89788DCE0101960E94A105C3
S1130B30EF81F885E00FF11F10822E96E4E00C940B
S1130B405C08ABE0B0E0E7EAF5E00C9432086C0135
S1130B507B018A01FC0117821682838181FFCCC14B
S1130B60CE0101963C01F6019381F70193FD859135
S1130B7093FF81917F01882309F4BAC1853239F446
S1130B8093FD859193FF81917F01853229F4B6010C
S1130B9090E00E949807E7CF912C212C312CFFE1A3
S1130BA0F315D8F08B3279F038F4803279F083324F
S1130BB0A1F4232D20611DC08D3261F0803369F4CE
S1130BC0232D216016C0832D8260382EE32DE4602E
S1130BD03E2E2AC0F32DF8601DC037FC2DC020ED39
S1130BE0280F2A3040F08E32B9F436FC81C1232D0F
S1130BF02064322E19C036FE06C08AE0989E200D6D
S1130C001124922E11C0EAE02E9E200D1124222ED2
S1130C10F32DF0623F2E08C08C3621F4832D8068BA
S1130C20382E02C0883641F4F70193FD859193FF75
S1130C3081917F018111B3CF982F9F7D955493307B
S1130C4028F40C5F1F4F9FE399830DC0833631F066
S1130C50833771F0833509F059C021C0F8018081D0
S1130C6089830E5F1F4F88248394912C530113C0F2
S1130C702801F2E04F0E511CF801A080B18036FE2D
S1130C8003C0692D70E002C06FEF7FEFC5010E94C1
S1130C908D074C018201F32DFF773F2E16C02801EA
S1130CA022E0420E511CF801A080B18036FE03C040
S1130CB0692D70E002C06FEF7FEFC5010E948207CB
S1130CC04C01F32DF0683F2E820133FC1BC0822DB2
S1130CD090E088169906B0F4B60180E290E00E9494
S1130CE098072A94F4CFF50137FC859137FE81915A
S1130CF05F01B60190E00E94980721102A9421E038
S1130D00821A91088114910471F7E8C0843611F0B5
S1130D10893641F5F80137FE07C06081718182810F
S1130D2093810C5F1F4F08C060817181072E000CF6
S1130D30880B990B0E5F1F4FF32DFF763F2E97FF05
S1130D4009C090958095709561957F4F8F4F9F4F07
S1130D50F0683F2E2AE030E0A3010E94D407882ED9
S1130D60861845C0853731F4232D2F7EB22E2AE014
S1130D7030E025C0932D997FB92E8F36C1F018F439
S1130D80883579F0B5C0803719F0883721F0B0C0C4
S1130D90E92FE061BE2EB4FE0DC0FB2DF460BF2E22
S1130DA009C034FE0AC0292F2660B22E06C028E0EE
S1130DB030E005C020E130E002C020E132E0F8017B
S1130DC0B7FE07C060817181828193810C5F1F4FE0
S1130DD006C06081718180E090E00E5F1F4FA30127
S1130DE00E94D407882E8618FB2DFF773F2E36FEEF
S1130DF00DC0232D2E7FA22E891458F434FE0BC06F
S1130E0032FC09C0832D8E7EA82E05C0B82CA32CDD
S1130E1003C0B82C01C0B92CA4FE0FC0FE01E80D1C
S1130E20F11D8081803321F49A2D997EA92E09C069
S1130E30A2FE06C0B394B39404C08A2D867809F048
S1130E40B394A3FC11C0A0FE06C0B21488F4280C0D
S1130E50922C9B180EC0B21460F4B60180E290E0AC
S1130E600E949807B394F7CFB21418F42B1802C059
S1130E70982C212CA4FE10C0B60180E390E00E94BF
S1130E809807A2FE17C0A1FC03C088E790E002C047
S1130E9088E590E0B6010CC08A2D867859F0A1FE51
S1130EA002C08BE201C080E2A7FC8DE2B60190E0B3
S1130EB00E949807891438F4B60180E390E00E94F8
S1130EC098079A94F7CF8A94F301E80DF11D808175
S1130ED0B60190E00E9498078110F5CF222009F412
S1130EE042CEB60180E290E00E9498072A94F6CFA1
S1130EF0F6018681978102C08FEF9FEF2B96E2E186
S1130F000C944E08FC010590615070400110D8F714
S1130F10809590958E0F9F1F0895FC01615070403D
S1130F2001900110D8F7809590958E0F9F1F08951A
S1130F300F931F93CF93DF93FB01238121FD03C004
S1130F408FEF9FEF2CC022FF16C04681578124816A
S1130F5035814217530744F4A081B1819D012F5F6D
S1130F603F4F318320838C93268137812F5F3F4FFE
S1130F703783268314C08B01EC01FB010084F185C7
S1130F80E02D0995892BE1F6D80116968D919C9157
S1130F901797019617969C938E931697CE01DF911F
S1130FA0CF911F910F910895FA01AA27283051F18A
S1130FB0203181F1E8946F936E7F6E5F7F4F8F4F86
S1130FC09F4FAF4FB1E03ED0B4E03CD0670F781FE5
S1130FD0891F9A1FA11D680F791F8A1F911DA11DCA
S1130FE06A0F711D811D911DA11D20D009F4689403
S1130FF03F912AE0269F11243019305D3193DEF6AB
S1131000CF010895462F4770405D4193B3E00FD060
S1131010C9F7F6CF462F4F70405D4A3318F0495D4B
S113102031FD4052419302D0A9F7EACFB4E0A6952E
S11310309795879577956795BA95C9F70097610550
S1131040710508959B01AC010A2E069457954795A6
S113105037952795BA95C9F7620F731F841F951F9B
S1131060A01D08952F923F924F925F926F927F92AC
S11310708F929F92AF92BF92CF92DF92EF92FF92A4
S11310800F931F93CF93DF93CDB7DEB7CA1BDB0B50
S11310900FB6F894DEBF0FBECDBF09942A883988F5
S11310A048885F846E847D848C849B84AA84B984FC
S11310B0C884DF80EE80FD800C811B81AA81B98108
S11310C0CE0FD11D0FB6F894DEBF0FBECDBFED011C
S10910D00895F894FFCF1F
S10710D62564000089
S9030000FC
