:100000000C9434000C9451000C9451000C94510049
:100010000C9451000C94EB030C9451000C9451007F
:100020000C9451000C9451000C9451000C9451000C
:100030000C9451000C9451000C9451000C945100FC
:100040000C9451000C9451000C94BA020C94510081
:100050000C9451000C9406020C9451000C94510025
:100060000C9451000C94510011241FBECFEFD8E026
:10007000DEBFCDBF11E0A0E0B1E0EAE9FCE102C0E3
:1000800005900D92AE30B107D9F721E0AEE0B1E0B6
:1000900001C01D92A732B207E1F70E94D4000C9470
:1000A0004B0E0C940000CF920F9310927C00813085
:1000B00019F0823039F00BC0ECE7F0E08081806409
:1000C000808305C0ECE7F0E08081806C80838091C4
:1000D0007C00613011F490E201C090E0892BECE7E4
:1000E000F0E080838081483008F040E0482B409366
:1000F0007C0080917A00213011F490E801C090E0FA
:10010000892BEAE7F0E080838081013011F490E2EE
:1001100001C090E0892BEAE7F0E08083808188606D
:100120008083808197E09C1508F4C12CC82AC09276
:100130007A000F91CF900895ECE7F0E09081907FE6
:1001400090839081883008F080E0892B80937C0038
:1001500008958EE087B91AB88BB188618BB908957C
:1001600084E08093680088E980936D0008958FE3B0
:100170009CE90197F1F700C00000809111018330E4
:1001800019F0843049F008954B9B0DC088E98093A5
:100190006D001092110108954C9B05C088E9809371
:1001A0006D00109211010895F8940E94A9000E9418
:1001B000B0000E94AE0B0F2EA12CB12CF8E4CF2E74
:1001C000F2E4DF2EF02DE12C05E020E030E042E00B
:1001D00061E081E00E944304A12CB12C650120E084
:1001E00030E042E061E082E00E944304A12CB12CA7
:1001F00065016894C5F8D6F802E020E43CE945E0E2
:1002000060E083E00E94430420E43CE945E060E0D4
:1002100084E00E9443040F2EF7E0CF2EF02D00E083
:1002200021E04091020161E081E00E945300EAE791
:10023000F0E0808180648083789480910301823033
:1002400001F1833009F4D5C08130B9F780911101F3
:10025000882319F00E94B7000DC08091010181111F
:1002600009C081E080930101EAE7F0E080818064C9
:100270008083789488B1826088B988B1837F88B997
:10028000DCCF88B1846088B988B1857F88B98091D6
:100290001101833091F60E94B70080910E018130E8
:1002A00061F6F89410920E0180910001823091F075
:1002B00018F4813031F028C08330A9F08430E1F0A7
:1002C00023C044E050E06CE070E082E291E00E94E4
:1002D0003B0E1AC044E050E068E070E082E291E03A
:1002E0000E943B0E11C044E050E064E070E082E206
:1002F00091E00E943B0E08C044E050E060E070E0F6
:1003000082E291E00E943B0E02E211E0F80160817E
:1003100070E080E090E00E94F80C21E030E245E2DD
:100320005DE30E94A80D20E030E040E250E40E942E
:10033000E40BAB01BC0140931B0150931C01609383
:100340001D0170931E0183E00E94D908F80181818C
:10035000CFEFD0E0BE01681B7109072E000C880B9F
:10036000990B0E94F80CAB01BC0140931B01509308
:100370001C0160931D0170931E0181E00E94D90849
:10038000F8018281BE01681B7109072E000C880BE1
:10039000990B0E94F80CAB01BC0140931B015093D8
:1003A0001C0160931D0170931E0182E00E94D90818
:1003B000F801638170E080E090E00E94F80C21E099
:1003C00030E245E25DE30E94A80D20E030E040E22B
:1003D00050E40E94E40BAB01BC0140931B0150931D
:1003E0001C0160931D0170931E0184E00E94D908D6
:1003F00024CF80911101833011F40E94B70088B19D
:10040000886088B988B1897F88B917CF1F920F9209
:100410000FB60F9211242F933F934F935F936F93D7
:100420007F938F939F93AF93BF93EF93FF93F89432
:1004300080910201853061F118F4843041F07CC074
:10044000863009F43FC0873009F456C075C060910A
:10045000790070E080E090E00E94F80C21E030E24A
:1004600045E25DE30E94A80D20E030E040E250E468
:100470000E94E40BAB01BC0140931B0150931C0193
:1004800060931D0170931E0183E00E94D90854C03F
:10049000809179006FEF70E0681B7109072E000CE6
:1004A000880B990B0E94F80CAB01BC0140931B0117
:1004B00050931C0160931D0170931E0181E00E9406
:1004C000D9083AC0809179006FEF70E0681B71091C
:1004D000072E000C880B990B0E94F80CAB01BC0195
:1004E00040931B0150931C0160931D0170931E01EA
:1004F00082E00E94D90820C06091790070E080E01D
:1005000090E00E94F80C21E030E245E25DE30E94B9
:10051000A80D20E030E040E250E40E94E40BAB0183
:10052000BC0140931B0150931C0160931D0170930B
:100530001E0184E00E94D90880910201873011F0E9
:100540008F5F01C084E0809302010E949C001092A2
:100550000101FF91EF91BF91AF919F918F917F9199
:100560006F915F914F913F912F910F900FBE0F9020
:100570001F9018951F920F920FB60F9211242F9370
:100580003F934F935F936F937F938F939F93AF931B
:10059000BF93EF93FF938091C60080931F018091DA
:1005A000C00085FFFCCF80911001823078F49091DB
:1005B0000F0191110BC0E82FF0E090911F01E05E58
:1005C000FE4F90838F5F8093100110C0843070F4D1
:1005D00090910F01992351F0E82FF0E090911F01C5
:1005E000E85EFE4F90838F5F809310018091100131
:1005F000823009F04AC090910F01911146C02091BC
:100600002001213389F490912101903339F0913305
:1006100041F0923329F08091030103C081E001C0D1
:1006200083E0809303012FC030910301333059F5EB
:100630002233A1F420912101203341F0213341F0F4
:10064000223341F0233339F494E005C091E003C034
:10065000982F01C0932F90930F0115C0233399F465
:1006600080912101803341F0813341F0823341F0A8
:10067000833339F498E005C095E003C096E001C0EB
:1006800097E090930F011092100180911001833038
:1006900009F090C080910F01882309F48BC0853048
:1006A00008F088C0823079F118F4813041F07EC0C2
:1006B000833009F440C0843009F455C077C088E124
:1006C00091E00E94150EBC01990F880B990B0E94B6
:1006D000F80C21E030E245E25DE30E94A80D20E045
:1006E00030E040E250E40E94E40BAB01BC014093D7
:1006F0001B0150931C0160931D0170931E0183E048
:100700000E94D90853C088E191E00E94150EBC01F7
:10071000990F880B990B0E94F80CAB01BC01409318
:100720001B0150931C0160931D0170931E0181E019
:100730000E94D9083BC088E191E00E94150EBC01DF
:10074000990F880B990B0E94F80CAB01BC014093E8
:100750001B0150931C0160931D0170931E0182E0E8
:100760000E94D90823C088E191E00E94150EBC01C7
:10077000990F880B990B0E94F80C21E030E245E2BA
:100780005DE30E94A80D20E030E040E250E40E94CA
:10079000E40BAB01BC0140931B0150931C0160931F
:1007A0001D0170931E0184E00E94D908109210016F
:1007B00010920F01FF91EF91BF91AF919F918F9197
:1007C0007F916F915F914F913F912F910F900FBE4D
:1007D0000F901F9018951F920F920FB60F92112431
:1007E0002F933F934F935F936F937F938F939F9339
:1007F000AF93BF93EF93FF934B9921C083E0809316
:10080000110180910301833011F08F5F01C081E0FD
:1008100080930301813029F484E091E00E94D20B9F
:100820000BC0823029F487E091E00E94D20B04C013
:100830008AE091E00E94D20B10926D0013C04C9997
:1008400011C010926D0084E080931101809100012D
:10085000853010F48F5F01C081E08093000181E05A
:1008600080930E01FF91EF91BF91AF919F918F9176
:100870007F916F915F914F913F912F910F900FBE9C
:100880000F901F9018958F929F92AF92BF92CF9228
:10089000DF92EF920F931F93CF93DF939FEF980F09
:1008A000963008F07AC4623008F077C4442309F423
:1008B00074C4473008F071C4002309F46EC40830D2
:1008C00008F06BC494E09E1508F467C44501560116
:1008D0006901142FD62FC82F20E030E048EC52E4F5
:1008E000C501B4010E94500C18160CF456C4C33054
:1008F00009F49AC030F4C13069F0C23009F44FC035
:100900004CC4C53009F49EC308F4F0C1C63009F4E4
:10091000E1C343C48AB180648AB914BC84B5D130C0
:1009200011F490EC01C090E8892B84BD84B512309D
:1009300011F493E001C091E0892B84BD15BC85B50D
:10094000063008F000E0802B85BDC60101978E3F80
:10095000910528F485B5886085BDC7BC13C020E02B
:1009600030E048EC52E4C501B4010E94550C20E08F
:1009700030E04FE753E40E94A80D0E94C70C60933B
:10098000140167BDEE2009F408C483E0E81609F4F9
:1009900004C4EEE6F0E08081E82AE082FEC38AB17A
:1009A00080628AB98BB180628BB984B5D13011F481
:1009B00090E301C090E2892B84BD84B5123011F41C
:1009C00093E001C091E0892B84BD85B5063008F025
:1009D00000E0802B85BDC60101978E3F910520F474
:1009E00085B5886085BDC7BC20E030E048EC52E4A6
:1009F000C501B4010E94550C20E030E04FE753E4FC
:100A00000E94A80D0E94C70C6093140168BDEE20DF
:100A100009F4C3C393E0E91609F4BFC3EEE6F0E0BE
:100A20008081E82AE082B9C384B1826084B9809170
:100A30008000D13011F490EC01C090E8892B8093B4
:100A4000800080918100063008F000E0802B8093C8
:100A50008100133009F4DBC030F4113069F012303A
:100A600009F46DC030C1153009F4F7C008F4E6C0D0
:100A7000163009F41AC127C1909180008FEFC81673
:100A8000D10461F08FEFC81681E0D80649F08FEFEE
:100A9000C81683E0D80631F483E005C081E003C0C6
:100AA00082E001C080E0892B809380009FEFC9160F
:100AB000D10489F420E030E048EC52E4C501B401EF
:100AC0000E94550C20E030E04FE753E40E94A80D4F
:100AD0000E94C70C2DC08FEFC81681E0D80689F49C
:100AE00020E030E048EC52E4C501B4010E94550C0E
:100AF00020E030E84FEF53E40E94A80D0E94C70C9D
:100B000017C09FEFC91693E0D90689F420E030E0C2
:100B100048EC52E4C501B4010E94550C20E030ECD1
:100B20004FE754E40E94A80D0E94C70C01C060E08A
:100B3000862F90E09093890080938800C4C09091A4
:100B400080008FEFC816D10461F08FEFC81681E0E6
:100B5000D80649F08FEFC81683E0D80631F483E059
:100B600005C081E003C082E001C080E0892B809352
:100B70008000E1E8F0E08081886080839FEFC91603
:100B8000D10489F420E030E048EC52E4C501B4011E
:100B90000E94550C20E030E04FE753E40E94A80D7E
:100BA0000E94C70C2DC08FEFC81681E0D80689F4CB
:100BB00020E030E048EC52E4C501B4010E94550C3D
:100BC00020E030E84FEF53E40E94A80D0E94C70CCC
:100BD00017C09FEFC91693E0D90689F420E030E0F2
:100BE00048EC52E4C501B4010E94550C20E030EC01
:100BF0004FE754E40E94A80D0E94C70C01C060E0BA
:100C0000862F90E090938900809388005CC0E0E894
:100C1000F0E0808182608083E1E8F0E080818061A3
:100C20008083D0928700C0928600C501B4010E94E3
:100C3000C70C709389006093880045C0E0E8F0E03D
:100C4000808183608083E1E8F0E08081806180833F
:100C5000D0928900C092880036C0E0E8F0E0808140
:100C600082608083E1E8F0E0808188618083D092B7
:100C70008700C0928600B60180E090E00E94F60CEA
:100C8000A50194010E94A80D20E030E048EC52E458
:100C90000E94550C0E94C70C7093130160931201BF
:100CA00070938900609388000EC0E0E8F0E08081D6
:100CB00083608083E1E8F0E0808188618083D09266
:100CC0008900C0928800EE2041F083E0E81629F008
:100CD000EFE6F0E080818E29808393E0E9125DC227
:100CE000EFE6F0E080818062808357C284B1846047
:100CF00084B980918000D13011F490E301C090E27A
:100D0000892B8093800080918100063008F000E0FC
:100D1000802B80938100133009F4DBC030F4113054
:100D200069F0123009F46DC079C1153009F425C19C
:100D300008F4F9C0163009F448C170C190918000E0
:100D40008FEFC816D10461F08FEFC81681E0D80686
:100D500049F08FEFC81683E0D80631F483E005C070
:100D600081E003C082E001C080E0892B8093800095
:100D70009FEFC916D10489F420E030E048EC52E43A
:100D8000C501B4010E94550C20E030E04FE753E468
:100D90000E94A80D0E94C70C2DC08FEFC81681E0DD
:100DA000D80689F420E030E048EC52E4C501B401F3
:100DB0000E94550C20E030E84FEF53E40E94A80D4C
:100DC0000E94C70C17C09FEFC91693E0D90689F49B
:100DD00020E030E048EC52E4C501B4010E94550C1B
:100DE00020E030EC4FE754E40E94A80D0E94C70CAD
:100DF00001C060E0862F90E090938B0080938A0082
:100E00000DC1909180008FEFC816D10461F08FEF73
:100E1000C81681E0D80649F08FEFC81683E0D806DF
:100E200031F483E005C081E003C082E001C080E0CE
:100E3000892B80938000E1E8F0E0808188608083E6
:100E40009FEFC916D10489F420E030E048EC52E469
:100E5000C501B4010E94550C20E030E04FE753E497
:100E60000E94A80D0E94C70C2DC08FEFC81681E00C
:100E7000D80689F420E030E048EC52E4C501B40122
:100E80000E94550C20E030E84FEF53E40E94A80D7B
:100E90000E94C70C17C09FEFC91693E0D90689F4CA
:100EA00020E030E048EC52E4C501B4010E94550C4A
:100EB00020E030EC4FE754E40E94A80D0E94C70CDC
:100EC00001C060E0862F90E090938B0080938A00B1
:100ED000A5C0E0E8F0E0808182608083E1E8F0E096
:100EE000808180618083D0928700C092860020E05C
:100EF00030E048EC52E4C501B4010E94550C4B01AE
:100F00005C01B60180E090E00E94F60CA50194011E
:100F10000E94A80D0E94C70C862F90E090938B0032
:100F200080938A007BC0E0E8F0E08081836080836A
:100F3000E1E8F0E0808180618083D0928900C092F6
:100F4000880020E030E048EC52E4C501B4010E9482
:100F5000550C4B015C01B60180E090E00E94F60C5C
:100F6000A50194010E94A80D0E94C70C862F90E055
:100F700090938B0080938A0051C0E0E8F0E080817C
:100F800082608083E1E8F0E0808188618083D09294
:100F90008700C0928600B60180E090E00E94F60CC7
:100FA000A50194010E94A80D20E030E048EC52E435
:100FB0000E94550C0E94C70C70931301609312019C
:100FC00070938B0060938A0029C0E0E8F0E0808194
:100FD00083608083E1E8F0E0808188618083D09243
:100FE0008900C092880020E030E048EC52E4C5015E
:100FF000B4010E94550C4B015C01B60180E090E009
:101000000E94F60CA50194010E94A80D0E94C70C35
:10101000862F90E090938B0080938A00EE2049F019
:1010200083E0E81631F0EFE6F0E08081E82AE08224
:10103000B4C093E0E912B1C0EFE6F0E080818062D5
:101040008083ABC084B1886084B98091B000D13016
:1010500011F490EC01C090E8892BE0EBF0E0808384
:101060008081123011F493E001C091E0892B8093CC
:10107000B0008FEFC816D10440F4E1EBF0E08081BE
:1010800088608083C092B30018C09FEFC916D10456
:10109000A1F420E030E048EC52E4C501B4010E9424
:1010A000550C20E030E04FE753E40E94A80D0E9469
:1010B000C70C609314016093B300EE2009F46DC077
:1010C00083E0E81609F469C0E0E7F0E08081E82AEF
:1010D000E08263C08AB188608AB98091B000D13063
:1010E00011F490EC01C090E8892BE0EBF0E08083F4
:1010F0008081123011F493E001C091E0892B80933C
:10110000B000083008F000E00093B1009FEFC9166E
:10111000D10408F5E1EBF0E0808188608083C09223
:10112000B30020E030E048EC52E4C501B4010E9475
:10113000550C4B015C01B60180E090E00E94F60C7A
:10114000A50194010E94A80D0E94C70C6093140190
:101150006093B40018C08FEFC816D104A0F420E04B
:1011600030E048EC52E4C501B4010E94550C20E087
:1011700030E04FE753E40E94A80D0E94C70C609333
:1011800014016093B400EE2041F093E0E91629F0D9
:10119000EEE6F0E08081E82AE082DF91CF911F91B6
:1011A0000F91EF90DF90CF90BF90AF909F908F9076
:1011B0000895CF92DF92EF92FF92CF93DF936A016F
:1011C0007B01833071F128F4813061F0823091F03D
:1011D000BEC2853009F47FC208F422C1863009F40A
:1011E00084C2B5C28AB180648AB905B400FCAFC2BA
:1011F00084B5ADC28AB180628AB920E030E04FE7A1
:1012000053E4C701B6010E94A80D20E030E048EC8D
:1012100052E40E94550C0E94C70C6093140168BDF3
:1012200096C284B1826084B980918100887109F08E
:1012300052C080918000837009F44DC0809180007D
:101240008370813089F420E030E048EC52E4C7013B
:10125000B6010E94550C20E030E04FE753E40E94B5
:10126000A80D0E94C70C2EC0809180008370823030
:1012700089F420E030E048EC52E4C701B6010E9456
:10128000550C20E030E84FEF53E40E94A80D0E9477
:10129000C70C18C0809180008370833089F420E0EF
:1012A00030E048EC52E4C701B6010E94550C20E042
:1012B00030EC4FE754E40E94A80D0E94C70C02C016
:1012C00060E070E0709313016093120170938900E5
:1012D000609388003CC28091810084FD52C080915F
:1012E0008000837009F44DC080918000837081304C
:1012F00089F420E030E048EC52E4C701B6010E94D6
:10130000550C20E030E04FE753E40E94A80D0E9406
:10131000C70C2EC0809180008370823089F420E059
:1013200030E048EC52E4C701B6010E94550C20E0C1
:1013300030E84FEF53E40E94A80D0E94C70C18C07C
:10134000809180008370833089F420E030E048ECA5
:1013500052E4C701B6010E94550C20E030EC4FE783
:1013600054E40E94A80D0E94C70C02C060E070E027
:101370007093130160931201709389006093880049
:10138000E6C18091810084FF22C08091800083703B
:101390008230E9F4609186007091870080E090E0EF
:1013A0000E94F60CA70196010E94A80D20E030E0F3
:1013B00048EC52E40E94550C0E94C70C7093130134
:1013C000609312017093890060938800C0C180917E
:1013D00081008871883109F0BAC1809180008370E2
:1013E000823009F0B4C1609186007091870080E07E
:1013F00090E00E94F60CA70196010E94A80D20E043
:1014000030E048EC52E40E94550C0E94C70C7093E7
:10141000130160931201709389006093880097C153
:1014200084B1846084B980918100887109F052C0D0
:1014300080918000837009F44DC08091800083709A
:10144000813089F420E030E048EC52E4C701B60175
:101450000E94550C20E030E04FE753E40E94A80DB5
:101460000E94C70C2EC0809180008370823089F466
:1014700020E030E048EC52E4C701B6010E94550C70
:1014800020E030E84FEF53E40E94A80D0E94C70C03
:1014900018C0809180008370833089F420E030E0B0
:1014A00048EC52E4C701B6010E94550C20E030EC34
:1014B0004FE754E40E94A80D0E94C70C02C060E0F0
:1014C00070E0709313016093120170938B0060932E
:1014D0008A003DC18091810084FD52C080918000CE
:1014E000837009F44DC0809180008370813089F44D
:1014F00020E030E048EC52E4C701B6010E94550CF0
:1015000020E030E04FE753E40E94A80D0E94C70C92
:101510002EC0809180008370823089F420E030E01A
:1015200048EC52E4C701B6010E94550C20E030E8B7
:101530004FEF53E40E94A80D0E94C70C18C0809181
:1015400080008370833089F420E030E048EC52E47E
:10155000C701B6010E94550C20E030EC4FE754E47F
:101560000E94A80D0E94C70C02C060E070E070935A
:1015700013016093120170938B0060938A00E7C09F
:101580008091810084FF27C0809180008370823029
:1015900011F5C0918600D091870020E030E048EC42
:1015A00052E4C701B6010E94550C6B017C01BE01DB
:1015B00080E090E00E94F60CA70196010E94A80D21
:1015C0000E94C70C709313016093120170938B00FB
:1015D00060938A00BCC08091810084FF27C0809105
:1015E00080008370833011F5C0918800D09189000C
:1015F00020E030E048EC52E4C701B6010E94550CEF
:101600006B017C01BE0180E090E00E94F60CA70116
:1016100096010E94A80D0E94C70C7093130160935D
:10162000120170938B0060938A0091C080918100B9
:101630008871883111F58091800083708230E9F4DF
:10164000609186007091870080E090E00E94F60C27
:10165000A70196010E94A80D20E030E048EC52E47A
:101660000E94550C0E94C70C7093130160931201E5
:1016700070938B0060938A006AC0809181008871AA
:10168000883109F064C0809180008370833009F054
:101690005EC0C0918800D091890020E030E048EC25
:1016A00052E4C701B6010E94550C6B017C01BE01DA
:1016B00080E090E00E94F60CA70196010E94A80D20
:1016C0000E94C70C709313016093120170938B00FA
:1016D00060938A003CC084B1886084B98091B10075
:1016E00080FD35C08091B00032C08AB188608AB96F
:1016F0008091B3008F3FB9F06091B30070E080E05B
:1017000090E00E94F80CA70196010E94A80D20E02D
:1017100030E048EC52E40E94550C0E94C70C6093E4
:10172000140168BD14C020E030E04FE753E4C70166
:10173000B6010E94A80D20E030E048EC52E40E947F
:10174000550C0E94C70C609314016093B400DF91A4
:10175000CF91FF90EF90DF90CF9008958AB18E7F68
:101760008AB98AB182608AB9E0ECF0E010828081A7
:1017700082608083E1ECF0E0108280818068808369
:10178000808180618083808188608083E2ECF0E0EA
:10179000108286E080838FEC90E09093C500809368
:1017A000C4000895AC0120E007C09091C00095FFEF
:1017B000FCCF3093C6002F5FFA01E20FF11D30819C
:1017C0003111F3CF08955058BB27AA270E94FB0B75
:1017D0000C946E0D0E94600D38F00E94670D20F091
:1017E00039F49F3F19F426F40C945D0D0EF4E09546
:1017F000E7FB0C94570DE92F0E947F0D58F3BA17A1
:10180000620773078407950720F079F4A6F50C9416
:10181000A10D0EF4E0950B2EBA2FA02D0B01B901EE
:1018200090010C01CA01A0011124FF27591B99F056
:10183000593F50F4503E68F11A16F040A22F232F62
:10184000342F4427585FF3CF469537952795A795B2
:10185000F0405395C9F77EF41F16BA0B620B730B59
:10186000840BBAF09150A1F0FF0FBB1F661F771FCA
:10187000881FC2F70EC0BA0F621F731F841F48F47F
:10188000879577956795B795F7959E3F08F0B0CF08
:101890009395880F08F09927EE0F979587950895EF
:1018A0000E94330D08F481E008950E94690C0C94A5
:1018B0006E0D0E94670D58F00E94600D40F029F4F3
:1018C0005F3F29F00C94570D51110C94A20D0C940C
:1018D0005D0D0E947F0D68F39923B1F3552391F3B9
:1018E000951B550BBB27AA2762177307840738F08F
:1018F0009F5F5F4F220F331F441FAA1FA9F335D0EC
:101900000E2E3AF0E0E832D091505040E695001C9F
:10191000CAF72BD0FE2F29D0660F771F881FBB1F59
:10192000261737074807AB07B0E809F0BB0B802D37
:10193000BF01FF2793585F4F3AF09E3F510578F063
:101940000C94570D0C94A20D5F3FE4F3983ED4F332
:10195000869577956795B795F7959F5FC9F7880F37
:10196000911D9695879597F90895E1E0660F771F89
:10197000881FBB1F621773078407BA0720F0621B1A
:10198000730B840BBA0BEE1F88F7E09508950E9445
:10199000870D88F09F5798F0B92F9927B751B0F06D
:1019A000E1F0660F771F881F991F1AF0BA95C9F7E3
:1019B00014C0B13091F00E94A10DB1E008950C94D3
:1019C000A10D672F782F8827B85F39F0B93FCCF386
:1019D000869577956795B395D9F73EF49095809560
:1019E000709561957F4F8F4F9F4F0895E89409C080
:1019F00097FB3EF490958095709561957F4F8F4F42
:101A00009F4F9923A9F0F92F96E9BB279395F69557
:101A1000879577956795B795F111F8CFFAF4BB0FD5
:101A200011F460FF1BC06F5F7F4F8F4F9F4F16C039
:101A3000882311F096E911C0772321F09EE8872FC3
:101A4000762F05C0662371F096E8862F70E060E07F
:101A50002AF09A95660F771F881FDAF7880F9695F8
:101A6000879597F90895990F0008550FAA0BE0E89C
:101A7000FEEF16161706E807F907C0F01216130650
:101A8000E407F50798F0621B730B840B950B39F490
:101A90000A2661F0232B242B252B21F408950A26F6
:101AA00009F4A140A6958FEF811D811D089597F936
:101AB0009F6780E870E060E008959FEF80EC0895F4
:101AC00000240A941616170618060906089500241D
:101AD0000A9412161306140605060895092E039497
:101AE000000C11F4882352F0BB0F40F4BF2B11F40B
:101AF00060FF04C06F5F7F4F8F4F9F4F089557FD6A
:101B00009058440F551F59F05F3F71F04795880F6B
:101B100097FB991F61F09F3F79F087950895121602
:101B200013061406551FF2CF4695F1DF08C01616AE
:101B300017061806991FF1CF86957105610508945F
:101B40000895E894BB2766277727CB0197F9089576
:101B50000E94BB0D0C946E0D0E94600D38F00E9427
:101B6000670D20F0952311F00C94570D0C945D0D2A
:101B700011240C94A20D0E947F0D70F3959FC1F368
:101B8000950F50E0551F629FF001729FBB27F00D2B
:101B9000B11D639FAA27F00DB11DAA1F649F662780
:101BA000B00DA11D661F829F2227B00DA11D621FCF
:101BB000739FB00DA11D621F839FA00D611D221F89
:101BC000749F3327A00D611D231F849F600D211D6D
:101BD000822F762F6A2F11249F5750409AF0F1F0F0
:101BE00088234AF0EE0FFF1FBB1F661F771F881F59
:101BF00091505040A9F79E3F510580F00C94570D2D
:101C00000C94A20D5F3FE4F3983ED4F3869577954C
:101C10006795B795F795E7959F5FC1F7FE2B880FFE
:101C2000911D9695879597F90895FC018827992726
:101C3000E89421912032E9F3293010F02E30C8F3D6
:101C40002B3241F02D3239F4689404C00E94330ED7
:101C5000820F911D219120532A30C0F31EF49095DC
:101C600081959F4F08957AE0979F902D879F802DB3
:101C7000910D11240895DC01CB01FC01F999FECFEF
:101C800006C0F2BDE1BDF89A319600B40D92415004
:0A1C90005040B8F70895F894FFCF14
:0E1C9A0001010401313000313100313200000F
:00000001FF
